Component: ARM Compiler 5.06 update 1 (build 61) Tool: armlink [4d35a8]

==============================================================================

Section Cross References

    crc8.o(.text) refers to crc8.o(.constdata) for CRC8Table
    crc16.o(.text) refers to crc16.o(.constdata) for CRC16Table
    crc32.o(.text) refers to crc32.o(.data) for tab_gen_flag
    crc32.o(.text) refers to crc32.o(.bss) for CRC32Table
    fifo.o(.text) refers to malloc.o(i.malloc) for malloc
    fifo.o(.text) refers to malloc.o(i.free) for free
    mafilter.o(.text) refers to malloc.o(i.malloc) for malloc
    mafilter.o(.text) refers to malloc.o(i.free) for free
    mafilter_f32.o(.text) refers to malloc.o(i.malloc) for malloc
    mafilter_f32.o(.text) refers to malloc.o(i.free) for free
    mafilter_i16.o(.text) refers to malloc.o(i.malloc) for malloc
    mafilter_i16.o(.text) refers to malloc.o(i.free) for free
    mafilter_i32.o(.text) refers to malloc.o(i.malloc) for malloc
    mafilter_i32.o(.text) refers to malloc.o(i.free) for free
    sprotocol.o(.text) refers to memcpya.o(.text) for __aeabi_memcpy
    sprotocol.o(.text) refers to crc16.o(.text) for CRC16Append
    can1bus.o(.text) refers to can1.o(.bss) for can1RxMsg
    can1bus.o(.text) refers to can1bus.o(.data) for ZGyroAngle
==============================================================================

Removing Unused input sections from the image.

    Removing crc8.o(.text), (104 bytes).
    Removing crc8.o(.constdata), (257 bytes).
    Removing crc16.o(.text), (156 bytes).
    Removing crc16.o(.constdata), (514 bytes).
    Removing crc32.o(.text), (212 bytes).
    Removing crc32.o(.bss), (1024 bytes).
    Removing crc32.o(.constdata), (4 bytes).
    Removing crc32.o(.data), (1 bytes).
    Removing mafilter.o(.text), (300 bytes).
    Removing mafilter_i16.o(.text), (212 bytes).
    Removing mafilter_i32.o(.text), (202 bytes).
    Removing sprotocol.o(.text), (428 bytes).
    Removing can1bus.o(.rev16_text), (4 bytes).
    Removing can1bus.o(.revsh_text), (4 bytes).
    Removing can2bus.o(.rev16_text), (4 bytes).
    Removing can2bus.o(.revsh_text), (4 bytes).
    Removing controller.o(.rev16_text), (4 bytes).
    Removing controller.o(.revsh_text), (4 bytes).
==============================================================================

Image Symbol Table

    Local Symbols

    Symbol Name                              Value     Ov Type        Size  Object(Section)

    ../clib/../cmprslib/zerorunl2.c          0x00000000   Number         0  __dczerorl2.o ABSOLUTE
    ../clib/microlib/division.c              0x00000000   Number         0  uldiv.o ABSOLUTE
    ../clib/microlib/division.c              0x00000000   Number         0  uidiv.o ABSOLUTE
    ../clib/microlib/errno.c                 0x00000000   Number         0  errno.o ABSOLUTE
    ../clib/microlib/init/entry.s            0x00000000   Number         0  entry9b.o ABSOLUTE
    ../clib/microlib/init/entry.s            0x00000000   Number         0  entry10a.o ABSOLUTE
    ../clib/microlib/init/entry.s            0x00000000   Number         0  entry.o ABSOLUTE
    ../clib/microlib/init/entry.s            0x00000000   Number         0  entry8b.o ABSOLUTE
    ../clib/microlib/init/entry.s            0x00000000   Number         0  entry8a.o ABSOLUTE
    ../clib/microlib/init/entry.s            0x00000000   Number         0  entry7b.o ABSOLUTE
    ../clib/microlib/init/entry.s            0x00000000   Number         0  entry11b.o ABSOLUTE
    ../clib/microlib/init/entry.s            0x00000000   Number         0  entry7a.o ABSOLUTE
    ../clib/microlib/init/entry.s            0x00000000   Number         0  entry11a.o ABSOLUTE
    ../clib/microlib/init/entry.s            0x00000000   Number         0  entry5.o ABSOLUTE
    ../clib/microlib/init/entry.s            0x00000000   Number         0  entry10b.o ABSOLUTE
    ../clib/microlib/init/entry.s            0x00000000   Number         0  entry2.o ABSOLUTE
    ../clib/microlib/init/entry.s            0x00000000   Number         0  entry9a.o ABSOLUTE
    ../clib/microlib/longlong.c              0x00000000   Number         0  llsshr.o ABSOLUTE
    ../clib/microlib/longlong.c              0x00000000   Number         0  llshl.o ABSOLUTE
    ../clib/microlib/longlong.c              0x00000000   Number         0  llushr.o ABSOLUTE
    ../clib/microlib/malloc/malloc.c         0x00000000   Number         0  mallocra.o ABSOLUTE
    ../clib/microlib/malloc/malloc.c         0x00000000   Number         0  malloca.o ABSOLUTE
    ../clib/microlib/malloc/malloc.c         0x00000000   Number         0  mallocr.o ABSOLUTE
    ../clib/microlib/malloc/malloc.c         0x00000000   Number         0  malloc.o ABSOLUTE
    ../clib/microlib/malloc/mvars.c          0x00000000   Number         0  mvars.o ABSOLUTE
    ../clib/microlib/printf/printf.c         0x00000000   Number         0  printf2.o ABSOLUTE
    ../clib/microlib/printf/printf.c         0x00000000   Number         0  printf3.o ABSOLUTE
    ../clib/microlib/printf/printf.c         0x00000000   Number         0  printf1.o ABSOLUTE
    ../clib/microlib/printf/printf.c         0x00000000   Number         0  printf6.o ABSOLUTE
    ../clib/microlib/printf/printf.c         0x00000000   Number         0  printf5.o ABSOLUTE
    ../clib/microlib/printf/printf.c         0x00000000   Number         0  printfa.o ABSOLUTE
    ../clib/microlib/printf/printf.c         0x00000000   Number         0  printf4.o ABSOLUTE
    ../clib/microlib/printf/printf.c         0x00000000   Number         0  printf7.o ABSOLUTE
    ../clib/microlib/printf/printf.c         0x00000000   Number         0  printf0.o ABSOLUTE
    ../clib/microlib/printf/printf.c         0x00000000   Number         0  printfb.o ABSOLUTE
    ../clib/microlib/printf/printf.c         0x00000000   Number         0  printf8.o ABSOLUTE
    ../clib/microlib/printf/stubs.s          0x00000000   Number         0  stubs.o ABSOLUTE
    ../clib/microlib/stdio/streams.c         0x00000000   Number         0  stdout.o ABSOLUTE
    ../clib/microlib/string/memcpy.c         0x00000000   Number         0  memcpyb.o ABSOLUTE
    ../clib/microlib/string/memcpy.c         0x00000000   Number         0  memcpya.o ABSOLUTE
    ../clib/microlib/string/memset.c         0x00000000   Number         0  memseta.o ABSOLUTE
    ../clib/microlib/string/strlen.c         0x00000000   Number         0  strlen.o ABSOLUTE
    ../clib/microlib/stubs.s                 0x00000000   Number         0  iusefp.o ABSOLUTE
    ../fplib/microlib/d2f.c                  0x00000000   Number         0  d2f.o ABSOLUTE
    ../fplib/microlib/f2d.c                  0x00000000   Number         0  f2d.o ABSOLUTE
    ../fplib/microlib/fpadd.c                0x00000000   Number         0  dadd.o ABSOLUTE
    ../fplib/microlib/fpdiv.c                0x00000000   Number         0  ddiv.o ABSOLUTE
    ../fplib/microlib/fpepilogue.c           0x00000000   Number         0  fepilogue.o ABSOLUTE
    ../fplib/microlib/fpepilogue.c           0x00000000   Number         0  depilogue.o ABSOLUTE
    ../fplib/microlib/fpfix.c                0x00000000   Number         0  dfixul.o ABSOLUTE
    ../fplib/microlib/fpflt.c                0x00000000   Number         0  dflti.o ABSOLUTE
    ../fplib/microlib/fpmul.c                0x00000000   Number         0  dmul.o ABSOLUTE
    ../fplib/microlib/fpneg.c                0x00000000   Number         0  dneg.o ABSOLUTE
    ../fplib/microlib/fpsqrt.c               0x00000000   Number         0  dsqrt.o ABSOLUTE
    ../mathlib/asin.c                        0x00000000   Number         0  asin_x.o ABSOLUTE
    ../mathlib/asin.c                        0x00000000   Number         0  asin.o ABSOLUTE
    ../mathlib/atan.c                        0x00000000   Number         0  atan_x.o ABSOLUTE
    ../mathlib/atan.c                        0x00000000   Number         0  atan.o ABSOLUTE
    ../mathlib/atan2.c                       0x00000000   Number         0  atan2_x.o ABSOLUTE
    ../mathlib/atan2.c                       0x00000000   Number         0  atan2.o ABSOLUTE
    ../mathlib/dunder.c                      0x00000000   Number         0  dunder.o ABSOLUTE
    ../mathlib/fabs.c                        0x00000000   Number         0  fabs.o ABSOLUTE
    ../mathlib/fpclassify.c                  0x00000000   Number         0  fpclassify.o ABSOLUTE
    ../mathlib/poly.c                        0x00000000   Number         0  poly.o ABSOLUTE
    ../mathlib/qnan.c                        0x00000000   Number         0  qnan.o ABSOLUTE
    ../mathlib/sqrt.c                        0x00000000   Number         0  sqrt.o ABSOLUTE
    ../mathlib/sqrt.c                        0x00000000   Number         0  sqrt_x.o ABSOLUTE
    ..\\app\\Can1Bus.c                       0x00000000   Number         0  can1bus.o ABSOLUTE
    ..\\app\\Can2Bus.c                       0x00000000   Number         0  can2bus.o ABSOLUTE
    ..\\app\\Controller.c                    0x00000000   Number         0  controller.o ABSOLUTE
    ..\\app\\InputScaner.c                   0x00000000   Number         0  inputscaner.o ABSOLUTE
    ..\\app\\Odometry.c                      0x00000000   Number         0  odometry.o ABSOLUTE
    ..\\app\\Wireless.c                      0x00000000   Number         0  wireless.o ABSOLUTE
    ..\\bsp\\QuadEncoder.c                   0x00000000   Number         0  quadencoder.o ABSOLUTE
    ..\\bsp\\bsp.c                           0x00000000   Number         0  bsp.o ABSOLUTE
    ..\\bsp\\can1.c                          0x00000000   Number         0  can1.o ABSOLUTE
    ..\\bsp\\can2.c                          0x00000000   Number         0  can2.o ABSOLUTE
    ..\\bsp\\chip.c                          0x00000000   Number         0  chip.o ABSOLUTE
    ..\\bsp\\delay.c                         0x00000000   Number         0  delay.o ABSOLUTE
    ..\\bsp\\encoder.c                       0x00000000   Number         0  encoder.o ABSOLUTE
    ..\\bsp\\led.c                           0x00000000   Number         0  led.o ABSOLUTE
    ..\\bsp\\motor.c                         0x00000000   Number         0  motor.o ABSOLUTE
    ..\\bsp\\pwm.c                           0x00000000   Number         0  pwm.o ABSOLUTE
    ..\\bsp\\spi1.c                          0x00000000   Number         0  spi1.o ABSOLUTE
    ..\\bsp\\timer.c                         0x00000000   Number         0  timer.o ABSOLUTE
    ..\\bsp\\usart1.c                        0x00000000   Number         0  usart1.o ABSOLUTE
    ..\\bsp\\usart2.c                        0x00000000   Number         0  usart2.o ABSOLUTE
    ..\\bsp\\usart3.c                        0x00000000   Number         0  usart3.o ABSOLUTE
    ..\\bsp\\zgyro.c                         0x00000000   Number         0  zgyro.o ABSOLUTE
    ..\\imu\\imu.c                           0x00000000   Number         0  imu.o ABSOLUTE
    ..\\imu\\mpu6050_driver.c                0x00000000   Number         0  mpu6050_driver.o ABSOLUTE
    ..\\imu\\mpu6050_i2c.c                   0x00000000   Number         0  mpu6050_i2c.o ABSOLUTE
    ..\\imu\\mpu6050_interrupt.c             0x00000000   Number         0  mpu6050_interrupt.o ABSOLUTE
    ..\\lib\\misc.c                          0x00000000   Number         0  misc.o ABSOLUTE
    ..\\lib\\stm32f4xx_can.c                 0x00000000   Number         0  stm32f4xx_can.o ABSOLUTE
    ..\\lib\\stm32f4xx_dma.c                 0x00000000   Number         0  stm32f4xx_dma.o ABSOLUTE
    ..\\lib\\stm32f4xx_exti.c                0x00000000   Number         0  stm32f4xx_exti.o ABSOLUTE
    ..\\lib\\stm32f4xx_flash.c               0x00000000   Number         0  stm32f4xx_flash.o ABSOLUTE
    ..\\lib\\stm32f4xx_gpio.c                0x00000000   Number         0  stm32f4xx_gpio.o ABSOLUTE
    ..\\lib\\stm32f4xx_i2c.c                 0x00000000   Number         0  stm32f4xx_i2c.o ABSOLUTE
    ..\\lib\\stm32f4xx_rcc.c                 0x00000000   Number         0  stm32f4xx_rcc.o ABSOLUTE
    ..\\lib\\stm32f4xx_spi.c                 0x00000000   Number         0  stm32f4xx_spi.o ABSOLUTE
    ..\\lib\\stm32f4xx_syscfg.c              0x00000000   Number         0  stm32f4xx_syscfg.o ABSOLUTE
    ..\\lib\\stm32f4xx_tim.c                 0x00000000   Number         0  stm32f4xx_tim.o ABSOLUTE
    ..\\lib\\stm32f4xx_usart.c               0x00000000   Number         0  stm32f4xx_usart.o ABSOLUTE
    ..\\lib\\system_stm32f4xx.c              0x00000000   Number         0  system_stm32f4xx.o ABSOLUTE
    ..\\nrf\\NRF24L01.c                      0x00000000   Number         0  nrf24l01.o ABSOLUTE
    ..\\usr\\main.c                          0x00000000   Number         0  main.o ABSOLUTE
    ..\alg\crc\crc16.c                       0x00000000   Number         0  crc16.o ABSOLUTE
    ..\alg\crc\crc32.c                       0x00000000   Number         0  crc32.o ABSOLUTE
    ..\alg\crc\crc8.c                        0x00000000   Number         0  crc8.o ABSOLUTE
    ..\alg\fifo\fifo.c                       0x00000000   Number         0  fifo.o ABSOLUTE
    ..\alg\mafilter\mafilter.c               0x00000000   Number         0  mafilter.o ABSOLUTE
    ..\alg\mafilter\mafilter_f32.c           0x00000000   Number         0  mafilter_f32.o ABSOLUTE
    ..\alg\mafilter\mafilter_i16.c           0x00000000   Number         0  mafilter_i16.o ABSOLUTE
    ..\alg\mafilter\mafilter_i32.c           0x00000000   Number         0  mafilter_i32.o ABSOLUTE
    ..\alg\mecanum\mecanum.c                 0x00000000   Number         0  mecanum.o ABSOLUTE
    ..\alg\pid\pid.c                         0x00000000   Number         0  pid.o ABSOLUTE
    ..\alg\ramp\ramp.c                       0x00000000   Number         0  ramp.o ABSOLUTE
    ..\alg\sprotocol\sprotocol.c             0x00000000   Number         0  sprotocol.o ABSOLUTE
    ..\app\Can1Bus.c                         0x00000000   Number         0  can1bus.o ABSOLUTE
    ..\app\Can2Bus.c                         0x00000000   Number         0  can2bus.o ABSOLUTE
    ..\app\Controller.c                      0x00000000   Number         0  controller.o ABSOLUTE
    ..\app\InputScaner.c                     0x00000000   Number         0  inputscaner.o ABSOLUTE
    ..\app\Odometry.c                        0x00000000   Number         0  odometry.o ABSOLUTE
    ..\app\Wireless.c                        0x00000000   Number         0  wireless.o ABSOLUTE
    ..\bsp\QuadEncoder.c                     0x00000000   Number         0  quadencoder.o ABSOLUTE
    ..\bsp\bsp.c                             0x00000000   Number         0  bsp.o ABSOLUTE
    ..\bsp\can1.c                            0x00000000   Number         0  can1.o ABSOLUTE
    ..\bsp\can2.c                            0x00000000   Number         0  can2.o ABSOLUTE
    ..\bsp\chip.c                            0x00000000   Number         0  chip.o ABSOLUTE
    ..\bsp\dbus.c                            0x00000000   Number         0  dbus.o ABSOLUTE
    ..\bsp\delay.c                           0x00000000   Number         0  delay.o ABSOLUTE
    ..\bsp\encoder.c                         0x00000000   Number         0  encoder.o ABSOLUTE
    ..\bsp\led.c                             0x00000000   Number         0  led.o ABSOLUTE
    ..\bsp\motor.c                           0x00000000   Number         0  motor.o ABSOLUTE
    ..\bsp\pwm.c                             0x00000000   Number         0  pwm.o ABSOLUTE
    ..\bsp\spi1.c                            0x00000000   Number         0  spi1.o ABSOLUTE
    ..\bsp\timer.c                           0x00000000   Number         0  timer.o ABSOLUTE
    ..\bsp\usart1.c                          0x00000000   Number         0  usart1.o ABSOLUTE
    ..\bsp\usart2.c                          0x00000000   Number         0  usart2.o ABSOLUTE
    ..\bsp\usart3.c                          0x00000000   Number         0  usart3.o ABSOLUTE
    ..\bsp\zgyro.c                           0x00000000   Number         0  zgyro.o ABSOLUTE
    ..\imu\imu.c                             0x00000000   Number         0  imu.o ABSOLUTE
    ..\imu\mpu6050_driver.c                  0x00000000   Number         0  mpu6050_driver.o ABSOLUTE
    ..\imu\mpu6050_i2c.c                     0x00000000   Number         0  mpu6050_i2c.o ABSOLUTE
    ..\imu\mpu6050_interrupt.c               0x00000000   Number         0  mpu6050_interrupt.o ABSOLUTE
    ..\lib\misc.c                            0x00000000   Number         0  misc.o ABSOLUTE
    ..\lib\startup_stm32f4xx.s               0x00000000   Number         0  startup_stm32f4xx.o ABSOLUTE
    ..\lib\stm32f4xx_can.c                   0x00000000   Number         0  stm32f4xx_can.o ABSOLUTE
    ..\lib\stm32f4xx_dma.c                   0x00000000   Number         0  stm32f4xx_dma.o ABSOLUTE
    ..\lib\stm32f4xx_exti.c                  0x00000000   Number         0  stm32f4xx_exti.o ABSOLUTE
    ..\lib\stm32f4xx_flash.c                 0x00000000   Number         0  stm32f4xx_flash.o ABSOLUTE
    ..\lib\stm32f4xx_gpio.c                  0x00000000   Number         0  stm32f4xx_gpio.o ABSOLUTE
    ..\lib\stm32f4xx_i2c.c                   0x00000000   Number         0  stm32f4xx_i2c.o ABSOLUTE
    ..\lib\stm32f4xx_rcc.c                   0x00000000   Number         0  stm32f4xx_rcc.o ABSOLUTE
    ..\lib\stm32f4xx_spi.c                   0x00000000   Number         0  stm32f4xx_spi.o ABSOLUTE
    ..\lib\stm32f4xx_syscfg.c                0x00000000   Number         0  stm32f4xx_syscfg.o ABSOLUTE
    ..\lib\stm32f4xx_tim.c                   0x00000000   Number         0  stm32f4xx_tim.o ABSOLUTE
    ..\lib\stm32f4xx_usart.c                 0x00000000   Number         0  stm32f4xx_usart.o ABSOLUTE
    ..\lib\system_stm32f4xx.c                0x00000000   Number         0  system_stm32f4xx.o ABSOLUTE
    ..\nrf\NRF24L01.c                        0x00000000   Number         0  nrf24l01.o ABSOLUTE
    ..\usr\main.c                            0x00000000   Number         0  main.o ABSOLUTE
    cdcmple.s                                0x00000000   Number         0  cdcmple.o ABSOLUTE
    cdrcmple.s                               0x00000000   Number         0  cdrcmple.o ABSOLUTE
    dc.s                                     0x00000000   Number         0  dc.o ABSOLUTE
    handlers.s                               0x00000000   Number         0  handlers.o ABSOLUTE
    init.s                                   0x00000000   Number         0  init.o ABSOLUTE
    RESET                                    0x08000000   Section      392  startup_stm32f4xx.o(RESET)
    .ARM.Collect$$$$00000000                 0x08000188   Section        0  entry.o(.ARM.Collect$$$$00000000)
    .ARM.Collect$$$$00000001                 0x08000188   Section        4  entry2.o(.ARM.Collect$$$$00000001)
    .ARM.Collect$$$$00000004                 0x0800018c   Section        4  entry5.o(.ARM.Collect$$$$00000004)
    .ARM.Collect$$$$00000008                 0x08000190   Section        0  entry7b.o(.ARM.Collect$$$$00000008)
    .ARM.Collect$$$$0000000A                 0x08000190   Section        0  entry8b.o(.ARM.Collect$$$$0000000A)
    .ARM.Collect$$$$0000000B                 0x08000190   Section        8  entry9a.o(.ARM.Collect$$$$0000000B)
    .ARM.Collect$$$$0000000D                 0x08000198   Section        0  entry10a.o(.ARM.Collect$$$$0000000D)
    .ARM.Collect$$$$0000000F                 0x08000198   Section        0  entry11a.o(.ARM.Collect$$$$0000000F)
    .ARM.Collect$$$$00002712                 0x08000198   Section        4  entry2.o(.ARM.Collect$$$$00002712)
    __lit__00000000                          0x08000198   Data           4  entry2.o(.ARM.Collect$$$$00002712)
    .text                                    0x0800019c   Section        0  fifo.o(.text)
    .text                                    0x08000350   Section        0  mafilter_f32.o(.text)
    .text                                    0x0800047c   Section        0  pid.o(.text)
    .text                                    0x08000638   Section        0  ramp.o(.text)
    .text                                    0x080006c0   Section        0  mecanum.o(.text)
    .text                                    0x08000800   Section        0  can1bus.o(.text)
    .text                                    0x08000850   Section        0  can2bus.o(.text)
    .text                                    0x08000928   Section        0  controller.o(.text)
    .text                                    0x08000e5c   Section        0  inputscaner.o(.text)
    .text                                    0x0800182c   Section        0  bsp.o(.text)
    .text                                    0x08001874   Section        0  can1.o(.text)
    .text                                    0x080019d0   Section        0  can2.o(.text)
    .text                                    0x08001b20   Section        0  dbus.o(.text)
    .text                                    0x08001c68   Section        0  delay.o(.text)
    .text                                    0x08001ca0   Section        0  encoder.o(.text)
    .text                                    0x08001e54   Section        0  led.o(.text)
    .text                                    0x08001e90   Section        0  motor.o(.text)
    .text                                    0x08001f40   Section        0  pwm.o(.text)
    .text                                    0x080020e8   Section        0  spi1.o(.text)
    .text                                    0x080021fc   Section        0  timer.o(.text)
    .text                                    0x08002338   Section        0  usart1.o(.text)
    .text                                    0x08002508   Section        0  usart2.o(.text)
    .text                                    0x0800270c   Section        0  usart3.o(.text)
    .text                                    0x08002898   Section        0  zgyro.o(.text)
    .text                                    0x080028f4   Section        0  imu.o(.text)
    .text                                    0x08003794   Section        0  mpu6050_driver.o(.text)
    .text                                    0x08003d34   Section        0  mpu6050_i2c.o(.text)
    .text                                    0x080040d0   Section        0  mpu6050_interrupt.o(.text)
    .text                                    0x080041d4   Section        0  misc.o(.text)
    .text                                    0x080042b4   Section        0  stm32f4xx_can.o(.text)
    CheckITStatus                            0x08004ab7   Thumb Code    18  stm32f4xx_can.o(.text)
    .text                                    0x08004ca4   Section        0  stm32f4xx_dma.o(.text)
    .text                                    0x0800504c   Section        0  stm32f4xx_exti.o(.text)
    .text                                    0x08005168   Section        0  stm32f4xx_gpio.o(.text)
    .text                                    0x080053c4   Section        0  stm32f4xx_rcc.o(.text)
    .text                                    0x0800594c   Section        0  stm32f4xx_spi.o(.text)
    .text                                    0x08005d44   Section        0  stm32f4xx_syscfg.o(.text)
    .text                                    0x08005dd0   Section        0  stm32f4xx_tim.o(.text)
    TI4_Config                               0x0800656f   Thumb Code    80  stm32f4xx_tim.o(.text)
    TI3_Config                               0x080065d1   Thumb Code    72  stm32f4xx_tim.o(.text)
    TI2_Config                               0x08006633   Thumb Code    90  stm32f4xx_tim.o(.text)
    TI1_Config                               0x0800669f   Thumb Code    58  stm32f4xx_tim.o(.text)
    .text                                    0x08006a74   Section        0  stm32f4xx_usart.o(.text)
    .text                                    0x08006e90   Section        0  system_stm32f4xx.o(.text)
    SetSysClock                              0x08006e91   Thumb Code   220  system_stm32f4xx.o(.text)
    .text                                    0x080070a0   Section       36  startup_stm32f4xx.o(.text)
    $v0                                      0x080070a0   Number         0  startup_stm32f4xx.o(.text)
    .text                                    0x080070c4   Section        0  nrf24l01.o(.text)
    .text                                    0x080073e4   Section        0  main.o(.text)
    .text                                    0x08007574   Section        0  memseta.o(.text)
    .text                                    0x08007598   Section        0  strlen.o(.text)
    .text                                    0x080075a6   Section        0  dmul.o(.text)
    .text                                    0x0800768a   Section        0  ddiv.o(.text)
    .text                                    0x08007768   Section        0  dflti.o(.text)
    .text                                    0x0800778a   Section        0  f2d.o(.text)
    .text                                    0x080077b0   Section       48  cdrcmple.o(.text)
    .text                                    0x080077e0   Section        0  d2f.o(.text)
    .text                                    0x08007818   Section        0  uidiv.o(.text)
    .text                                    0x08007844   Section        0  uldiv.o(.text)
    .text                                    0x080078a6   Section        0  iusefp.o(.text)
    .text                                    0x080078a6   Section        0  fepilogue.o(.text)
    .text                                    0x08007914   Section        0  depilogue.o(.text)
    .text                                    0x080079ce   Section        0  dadd.o(.text)
    .text                                    0x08007b1c   Section        0  dsqrt.o(.text)
    .text                                    0x08007bbe   Section        0  dfixul.o(.text)
    .text                                    0x08007bf0   Section       36  init.o(.text)
    .text                                    0x08007c14   Section        0  llshl.o(.text)
    .text                                    0x08007c32   Section        0  llushr.o(.text)
    .text                                    0x08007c52   Section        0  llsshr.o(.text)
    .text                                    0x08007c76   Section        0  __dczerorl2.o(.text)
    i.__0printf                              0x08007ccc   Section        0  printfa.o(i.__0printf)
    i.__ARM_fpclassify                       0x08007cec   Section        0  fpclassify.o(i.__ARM_fpclassify)
    i.__hardfp_asin                          0x08007d20   Section        0  asin.o(i.__hardfp_asin)
    i.__hardfp_atan                          0x08008080   Section        0  atan.o(i.__hardfp_atan)
    i.__hardfp_atan2                         0x08008358   Section        0  atan2.o(i.__hardfp_atan2)
    i.__hardfp_fabs                          0x08008548   Section        0  fabs.o(i.__hardfp_fabs)
    i.__hardfp_sqrt                          0x0800855c   Section        0  sqrt.o(i.__hardfp_sqrt)
    i.__kernel_poly                          0x080085d6   Section        0  poly.o(i.__kernel_poly)
    i.__mathlib_dbl_infnan                   0x080086ce   Section        0  dunder.o(i.__mathlib_dbl_infnan)
    i.__mathlib_dbl_infnan2                  0x080086e2   Section        0  dunder.o(i.__mathlib_dbl_infnan2)
    i.__mathlib_dbl_invalid                  0x080086f8   Section        0  dunder.o(i.__mathlib_dbl_invalid)
    i.__mathlib_dbl_underflow                0x08008718   Section        0  dunder.o(i.__mathlib_dbl_underflow)
    i.__scatterload_copy                     0x08008738   Section       14  handlers.o(i.__scatterload_copy)
    i.__scatterload_null                     0x08008746   Section        2  handlers.o(i.__scatterload_null)
    i.__scatterload_zeroinit                 0x08008748   Section       14  handlers.o(i.__scatterload_zeroinit)
    i.__set_errno                            0x08008758   Section        0  errno.o(i.__set_errno)
    i._fp_digits                             0x08008764   Section        0  printfa.o(i._fp_digits)
    _fp_digits                               0x08008765   Thumb Code   334  printfa.o(i._fp_digits)
    i._printf_core                           0x080088c8   Section        0  printfa.o(i._printf_core)
    _printf_core                             0x080088c9   Thumb Code  1744  printfa.o(i._printf_core)
    i._printf_post_padding                   0x08008fa4   Section        0  printfa.o(i._printf_post_padding)
    _printf_post_padding                     0x08008fa5   Thumb Code    36  printfa.o(i._printf_post_padding)
    i._printf_pre_padding                    0x08008fc8   Section        0  printfa.o(i._printf_pre_padding)
    _printf_pre_padding                      0x08008fc9   Thumb Code    46  printfa.o(i._printf_pre_padding)
    i.atan                                   0x08008ff6   Section        0  atan.o(i.atan)
    i.fabs                                   0x08009006   Section        0  fabs.o(i.fabs)
    i.free                                   0x08009020   Section        0  malloc.o(i.free)
    i.malloc                                 0x08009070   Section        0  malloc.o(i.malloc)
    i.sqrt                                   0x080090dc   Section        0  sqrt.o(i.sqrt)
    .constdata                               0x0800914a   Section       10  nrf24l01.o(.constdata)
    .constdata                               0x08009158   Section       80  asin.o(.constdata)
    pS                                       0x08009158   Data          48  asin.o(.constdata)
    qS                                       0x08009188   Data          32  asin.o(.constdata)
    .constdata                               0x080091a8   Section      152  atan.o(.constdata)
    atanhi                                   0x080091a8   Data          32  atan.o(.constdata)
    atanlo                                   0x080091c8   Data          32  atan.o(.constdata)
    aTodd                                    0x080091e8   Data          40  atan.o(.constdata)
    aTeven                                   0x08009210   Data          48  atan.o(.constdata)
    .constdata                               0x08009240   Section        8  qnan.o(.constdata)
    .data                                    0x20000000   Section        4  can1bus.o(.data)
    .data                                    0x20000004   Section      916  controller.o(.data)
    ms_tick                                  0x20000394   Data           4  controller.o(.data)
    .data                                    0x20000398   Section       48  inputscaner.o(.data)
    .data                                    0x200003c8   Section        8  usart1.o(.data)
    this_time_rx_len                         0x200003cc   Data           4  usart1.o(.data)
    .data                                    0x200003d0   Section        5  usart2.o(.data)
    .data                                    0x200003d8   Section        5  usart3.o(.data)
    .data                                    0x200003e0   Section      112  imu.o(.data)
    gx                                       0x200003fc   Data           4  imu.o(.data)
    gy                                       0x20000400   Data           4  imu.o(.data)
    gz                                       0x20000404   Data           4  imu.o(.data)
    ax                                       0x20000408   Data           4  imu.o(.data)
    ay                                       0x2000040c   Data           4  imu.o(.data)
    az                                       0x20000410   Data           4  imu.o(.data)
    mx                                       0x20000414   Data           4  imu.o(.data)
    my                                       0x20000418   Data           4  imu.o(.data)
    mz                                       0x2000041c   Data           4  imu.o(.data)
    yaw_count                                0x2000044c   Data           4  imu.o(.data)
    .data                                    0x20000450   Section       12  mpu6050_driver.o(.data)
    .data                                    0x2000045c   Section        1  mpu6050_interrupt.o(.data)
    .data                                    0x2000045d   Section       16  stm32f4xx_rcc.o(.data)
    APBAHBPrescTable                         0x2000045d   Data          16  stm32f4xx_rcc.o(.data)
    .data                                    0x20000470   Section       20  system_stm32f4xx.o(.data)
    .data                                    0x20000484   Section        4  stdout.o(.data)
    .data                                    0x20000488   Section        4  mvars.o(.data)
    .data                                    0x2000048c   Section        4  mvars.o(.data)
    .data                                    0x20000490   Section        4  errno.o(.data)
    _errno                                   0x20000490   Data           4  errno.o(.data)
    .bss                                     0x20000494   Section      528  can2bus.o(.bss)
    .bss                                     0x200006a4   Section       84  controller.o(.bss)
    .bss                                     0x200006f8   Section       60  inputscaner.o(.bss)
    .bss                                     0x20000734   Section       20  can1.o(.bss)
    .bss                                     0x20000748   Section       20  can2.o(.bss)
    .bss                                     0x2000075c   Section       94  usart1.o(.bss)
    .bss                                     0x200007bc   Section       64  imu.o(.bss)
    q                                        0x200007e0   Data          16  imu.o(.bss)
    .bss                                     0x200007fc   Section      206  mpu6050_driver.o(.bss)
    HEAP                                     0x200008d0   Section      512  startup_stm32f4xx.o(HEAP)
    STACK                                    0x20000ad0   Section     2560  startup_stm32f4xx.o(STACK)

    Global Symbols

    Symbol Name                              Value     Ov Type        Size  Object(Section)

    BuildAttributes$$THM_ISAv4$E$P$D$K$B$S$7EM$VFPi3$EXTD16$VFPS$VFMA$PE$A:L22UL41UL21$X:L11$S22US41US21$IEEE1$IW$USESV6$~STKCKD$USESV7$~SHL$OTIME$ROPI$IEEEX$EBA8$MICROLIB$REQ8$PRES8$EABIv2 0x00000000   Number         0  anon$$obj.o ABSOLUTE
    __ARM_use_no_argv                        0x00000000   Number         0  main.o ABSOLUTE
    _printf_a                                0x00000000   Number         0  stubs.o ABSOLUTE
    _printf_c                                0x00000000   Number         0  stubs.o ABSOLUTE
    _printf_charcount                        0x00000000   Number         0  stubs.o ABSOLUTE
    _printf_d                                0x00000000   Number         0  stubs.o ABSOLUTE
    _printf_e                                0x00000000   Number         0  stubs.o ABSOLUTE
    _printf_f                                0x00000000   Number         0  stubs.o ABSOLUTE
    _printf_flags                            0x00000000   Number         0  stubs.o ABSOLUTE
    _printf_fp_dec                           0x00000000   Number         0  stubs.o ABSOLUTE
    _printf_fp_hex                           0x00000000   Number         0  stubs.o ABSOLUTE
    _printf_g                                0x00000000   Number         0  stubs.o ABSOLUTE
    _printf_i                                0x00000000   Number         0  stubs.o ABSOLUTE
    _printf_int_dec                          0x00000000   Number         0  stubs.o ABSOLUTE
    _printf_l                                0x00000000   Number         0  stubs.o ABSOLUTE
    _printf_lc                               0x00000000   Number         0  stubs.o ABSOLUTE
    _printf_ll                               0x00000000   Number         0  stubs.o ABSOLUTE
    _printf_lld                              0x00000000   Number         0  stubs.o ABSOLUTE
    _printf_lli                              0x00000000   Number         0  stubs.o ABSOLUTE
    _printf_llo                              0x00000000   Number         0  stubs.o ABSOLUTE
    _printf_llu                              0x00000000   Number         0  stubs.o ABSOLUTE
    _printf_llx                              0x00000000   Number         0  stubs.o ABSOLUTE
    _printf_longlong_dec                     0x00000000   Number         0  stubs.o ABSOLUTE
    _printf_longlong_hex                     0x00000000   Number         0  stubs.o ABSOLUTE
    _printf_longlong_oct                     0x00000000   Number         0  stubs.o ABSOLUTE
    _printf_ls                               0x00000000   Number         0  stubs.o ABSOLUTE
    _printf_mbtowc                           0x00000000   Number         0  stubs.o ABSOLUTE
    _printf_n                                0x00000000   Number         0  stubs.o ABSOLUTE
    _printf_o                                0x00000000   Number         0  stubs.o ABSOLUTE
    _printf_p                                0x00000000   Number         0  stubs.o ABSOLUTE
    _printf_percent                          0x00000000   Number         0  stubs.o ABSOLUTE
    _printf_pre_padding                      0x00000000   Number         0  stubs.o ABSOLUTE
    _printf_return_value                     0x00000000   Number         0  stubs.o ABSOLUTE
    _printf_s                                0x00000000   Number         0  stubs.o ABSOLUTE
    _printf_sizespec                         0x00000000   Number         0  stubs.o ABSOLUTE
    _printf_str                              0x00000000   Number         0  stubs.o ABSOLUTE
    _printf_truncate_signed                  0x00000000   Number         0  stubs.o ABSOLUTE
    _printf_truncate_unsigned                0x00000000   Number         0  stubs.o ABSOLUTE
    _printf_u                                0x00000000   Number         0  stubs.o ABSOLUTE
    _printf_wc                               0x00000000   Number         0  stubs.o ABSOLUTE
    _printf_wctomb                           0x00000000   Number         0  stubs.o ABSOLUTE
    _printf_widthprec                        0x00000000   Number         0  stubs.o ABSOLUTE
    _printf_x                                0x00000000   Number         0  stubs.o ABSOLUTE
    __cpp_initialize__aeabi_                  - Undefined Weak Reference
    __cxa_finalize                            - Undefined Weak Reference
    _clock_init                               - Undefined Weak Reference
    _microlib_exit                            - Undefined Weak Reference
    __Vectors_Size                           0x00000188   Number         0  startup_stm32f4xx.o ABSOLUTE
    __Vectors                                0x08000000   Data           4  startup_stm32f4xx.o(RESET)
    __Vectors_End                            0x08000188   Data           0  startup_stm32f4xx.o(RESET)
    __main                                   0x08000189   Thumb Code     0  entry.o(.ARM.Collect$$$$00000000)
    _main_stk                                0x08000189   Thumb Code     0  entry2.o(.ARM.Collect$$$$00000001)
    _main_scatterload                        0x0800018d   Thumb Code     0  entry5.o(.ARM.Collect$$$$00000004)
    __main_after_scatterload                 0x08000191   Thumb Code     0  entry5.o(.ARM.Collect$$$$00000004)
    _main_clock                              0x08000191   Thumb Code     0  entry7b.o(.ARM.Collect$$$$00000008)
    _main_cpp_init                           0x08000191   Thumb Code     0  entry8b.o(.ARM.Collect$$$$0000000A)
    _main_init                               0x08000191   Thumb Code     0  entry9a.o(.ARM.Collect$$$$0000000B)
    __rt_final_cpp                           0x08000199   Thumb Code     0  entry10a.o(.ARM.Collect$$$$0000000D)
    __rt_final_exit                          0x08000199   Thumb Code     0  entry11a.o(.ARM.Collect$$$$0000000F)
    FIFO_Create                              0x0800019d   Thumb Code    54  fifo.o(.text)
    FIFO_Init                                0x080001d3   Thumb Code    12  fifo.o(.text)
    FIFO_Flush                               0x080001df   Thumb Code     8  fifo.o(.text)
    FIFO_Push                                0x080001e7   Thumb Code    72  fifo.o(.text)
    FIFO_PushBlock                           0x0800022f   Thumb Code    38  fifo.o(.text)
    FIFO_IsEmpty                             0x08000255   Thumb Code    18  fifo.o(.text)
    FIFO_Pop                                 0x08000267   Thumb Code    34  fifo.o(.text)
    FIFO_GetUsedSpace                        0x08000289   Thumb Code    10  fifo.o(.text)
    FIFO_PopBlock                            0x08000293   Thumb Code    46  fifo.o(.text)
    FIFO_Preread                             0x080002c1   Thumb Code    28  fifo.o(.text)
    FIFO_PrereadBlock                        0x080002dd   Thumb Code    66  fifo.o(.text)
    FIFO_IsFull                              0x0800031f   Thumb Code    22  fifo.o(.text)
    FIFO_GetFreeSpace                        0x08000335   Thumb Code    14  fifo.o(.text)
    FIFO_Destroy                             0x08000343   Thumb Code    14  fifo.o(.text)
    MAFilterF32_Init                         0x08000351   Thumb Code    34  mafilter_f32.o(.text)
    MAFilterF32_Create                       0x08000373   Thumb Code   110  mafilter_f32.o(.text)
    MAFilterF32_Calc                         0x080003e1   Thumb Code    94  mafilter_f32.o(.text)
    MAFilterF32_Reset                        0x0800043f   Thumb Code    58  mafilter_f32.o(.text)
    PID_Reset                                0x0800047d   Thumb Code    50  pid.o(.text)
    PID_Calc                                 0x080004af   Thumb Code   390  pid.o(.text)
    Ramp_Init                                0x08000639   Thumb Code     4  ramp.o(.text)
    Ramp_Calc                                0x0800063d   Thumb Code    60  ramp.o(.text)
    Ramp_SetCounter                          0x08000679   Thumb Code     4  ramp.o(.text)
    Ramp_ResetCounter                        0x0800067d   Thumb Code    14  ramp.o(.text)
    Ramp_SetScale                            0x0800068b   Thumb Code     4  ramp.o(.text)
    Ramp_IsOverflow                          0x0800068f   Thumb Code    38  ramp.o(.text)
    Ramp_GetDir                              0x080006b5   Thumb Code     6  ramp.o(.text)
    Ramp_SetDir                              0x080006bb   Thumb Code     4  ramp.o(.text)
    Mecanum_Synthesis                        0x080006c1   Thumb Code   158  mecanum.o(.text)
    Mecanum_Decompose                        0x0800075f   Thumb Code   154  mecanum.o(.text)
    Can1BusTask                              0x08000801   Thumb Code    68  can1bus.o(.text)
    Can2BusTask                              0x08000851   Thumb Code   178  can2bus.o(.text)
    WorkingStateSM                           0x08000929   Thumb Code   152  controller.o(.text)
    ChassisPositionControl                   0x080009c1   Thumb Code   142  controller.o(.text)
    ChassisSpeedControl                      0x08000a4f   Thumb Code   134  controller.o(.text)
    ChassisCurrentControl                    0x08000ad5   Thumb Code   150  controller.o(.text)
    GimbalsPositionControl                   0x08000b6b   Thumb Code    82  controller.o(.text)
    GimbalsSpeedControl                      0x08000bbd   Thumb Code    82  controller.o(.text)
    GimbalsCurrentControl                    0x08000c0f   Thumb Code    72  controller.o(.text)
    PID_ResetAll                             0x08000c57   Thumb Code    64  controller.o(.text)
    Encoder_ResetAll                         0x08000c97   Thumb Code    40  controller.o(.text)
    Ramp_ResetAll                            0x08000cbf   Thumb Code    16  controller.o(.text)
    Controller_Reset                         0x08000ccf   Thumb Code    16  controller.o(.text)
    ChassisMotorCurrentTransmit              0x08000cdf   Thumb Code    32  controller.o(.text)
    GimbalsMotorCurrentTransmit              0x08000cff   Thumb Code   154  controller.o(.text)
    ControlTask                              0x08000d99   Thumb Code   180  controller.o(.text)
    GetInputMode                             0x08000e5d   Thumb Code    62  inputscaner.o(.text)
    GetCtrlMode                              0x08000e9b   Thumb Code    62  inputscaner.o(.text)
    GetSwitchState                           0x08000ed9   Thumb Code    18  inputscaner.o(.text)
    GetKeyAction                             0x08000eeb   Thumb Code    18  inputscaner.o(.text)
    GetSwitchPanel                           0x08000efd   Thumb Code    26  inputscaner.o(.text)
    GetKeyboard                              0x08000f17   Thumb Code   130  inputscaner.o(.text)
    GetStickCtrlChassisPosition              0x08000f99   Thumb Code   142  inputscaner.o(.text)
    GetStickCtrlChassisSpeed                 0x08001027   Thumb Code   142  inputscaner.o(.text)
    GetStickCtrlChassisCurrent               0x080010b5   Thumb Code   142  inputscaner.o(.text)
    GetStickCtrlGimbalsPosition              0x08001143   Thumb Code    96  inputscaner.o(.text)
    GetStickCtrlGimbalsSpeed                 0x080011a3   Thumb Code    96  inputscaner.o(.text)
    GetStickCtrlGimbalsCurrent               0x08001203   Thumb Code   170  inputscaner.o(.text)
    GetKeyboardCtrlChassisPosition           0x080012ad   Thumb Code   290  inputscaner.o(.text)
    GetKeyboardCtrlChassisSpeed              0x080013cf   Thumb Code   290  inputscaner.o(.text)
    GetKeyboardCtrlChassisCurrent            0x080014f1   Thumb Code   290  inputscaner.o(.text)
    GetMouseCtrlGimbalsPosition              0x08001613   Thumb Code   100  inputscaner.o(.text)
    GetMouseCtrlGimbalsSpeed                 0x08001677   Thumb Code   170  inputscaner.o(.text)
    GetMouseCtrlGimbalsCurrent               0x08001721   Thumb Code   100  inputscaner.o(.text)
    InputTask                                0x08001785   Thumb Code   144  inputscaner.o(.text)
    BSP_Config                               0x0800182d   Thumb Code    66  bsp.o(.text)
    CAN1_Config                              0x08001875   Thumb Code   264  can1.o(.text)
    CAN1_TX_IRQHandler                       0x0800197d   Thumb Code    22  can1.o(.text)
    CAN1_RX0_IRQHandler                      0x08001993   Thumb Code    44  can1.o(.text)
    CAN2_Config                              0x080019d1   Thumb Code   264  can2.o(.text)
    CAN2_TX_IRQHandler                       0x08001ad9   Thumb Code    22  can2.o(.text)
    CAN2_RX0_IRQHandler                      0x08001aef   Thumb Code    36  can2.o(.text)
    RC_ENC                                   0x08001b21   Thumb Code    64  dbus.o(.text)
    RC_DEC                                   0x08001b61   Thumb Code    86  dbus.o(.text)
    HC_ENC                                   0x08001bb7   Thumb Code    60  dbus.o(.text)
    HC_DEC                                   0x08001bf3   Thumb Code    66  dbus.o(.text)
    DBUS_ENC                                 0x08001c35   Thumb Code    26  dbus.o(.text)
    DBUS_DEC                                 0x08001c4f   Thumb Code    26  dbus.o(.text)
    delay_ms                                 0x08001c69   Thumb Code    28  delay.o(.text)
    delay_us                                 0x08001c85   Thumb Code    26  delay.o(.text)
    Encoder_Process                          0x08001ca1   Thumb Code   384  encoder.o(.text)
    Encoder_IsOk                             0x08001e21   Thumb Code    16  encoder.o(.text)
    Encoder_Reset                            0x08001e31   Thumb Code    14  encoder.o(.text)
    Led_Config                               0x08001e55   Thumb Code    54  led.o(.text)
    SetCMCurrent                             0x08001e91   Thumb Code    92  motor.o(.text)
    SetGMCurrent                             0x08001eed   Thumb Code    82  motor.o(.text)
    PWM_Config                               0x08001f41   Thumb Code   408  pwm.o(.text)
    SPI1_ReadWriteByte                       0x080020e9   Thumb Code    78  spi1.o(.text)
    SPI1_Init                                0x08002137   Thumb Code   190  spi1.o(.text)
    TIM6_Config                              0x080021fd   Thumb Code    72  timer.o(.text)
    TIM6_Start                               0x08002245   Thumb Code    30  timer.o(.text)
    TIM6_Stop                                0x08002263   Thumb Code    12  timer.o(.text)
    TIM6_DAC_IRQHandler                      0x0800226f   Thumb Code    34  timer.o(.text)
    TIM2_Config                              0x08002291   Thumb Code    80  timer.o(.text)
    TIM2_Start                               0x080022e1   Thumb Code    30  timer.o(.text)
    TIM2_Stop                                0x080022ff   Thumb Code    14  timer.o(.text)
    TIM2_IRQHandler                          0x0800230d   Thumb Code    30  timer.o(.text)
    Micros                                   0x0800232b   Thumb Code     8  timer.o(.text)
    USART1_Config                            0x08002339   Thumb Code   298  usart1.o(.text)
    USART1_IRQHandler                        0x08002463   Thumb Code   134  usart1.o(.text)
    USART2_Config                            0x08002509   Thumb Code   184  usart2.o(.text)
    USART2_Print                             0x080025c1   Thumb Code    28  usart2.o(.text)
    USART2_PrintString                       0x080025dd   Thumb Code    38  usart2.o(.text)
    USART2_PrintBlock                        0x08002603   Thumb Code    32  usart2.o(.text)
    fputc                                    0x08002623   Thumb Code    32  usart2.o(.text)
    USART2_IRQHandler                        0x08002643   Thumb Code   178  usart2.o(.text)
    USART3_Config                            0x0800270d   Thumb Code   190  usart3.o(.text)
    USART3_Print                             0x080027cb   Thumb Code    28  usart3.o(.text)
    USART3_PrintString                       0x080027e7   Thumb Code    46  usart3.o(.text)
    USART3_PrintBlock                        0x08002815   Thumb Code    32  usart3.o(.text)
    USART3_IRQHandler                        0x08002835   Thumb Code    84  usart3.o(.text)
    ZGyro_RST                                0x08002899   Thumb Code    86  zgyro.o(.text)
    invSqrt                                  0x080028f5   Thumb Code    56  imu.o(.text)
    Init_Quaternion                          0x0800292d   Thumb Code   586  imu.o(.text)
    IMU_getValues                            0x08002b77   Thumb Code   138  imu.o(.text)
    IMU_AHRSupdate                           0x08002c01   Thumb Code  2030  imu.o(.text)
    IMU_getQ                                 0x080033ef   Thumb Code    56  imu.o(.text)
    IMU_getYawPitchRoll                      0x08003427   Thumb Code   626  imu.o(.text)
    GetPitchYawGxGyGz                        0x08003699   Thumb Code   206  imu.o(.text)
    MPU6050_Init                             0x08003795   Thumb Code   236  mpu6050_driver.o(.text)
    MPU6050_EnableInt                        0x08003881   Thumb Code    66  mpu6050_driver.o(.text)
    MPU6050_Initialize                       0x080038c3   Thumb Code    20  mpu6050_driver.o(.text)
    MPU6050_ReadData                         0x080038d7   Thumb Code    44  mpu6050_driver.o(.text)
    MPU6050_DataSave                         0x08003903   Thumb Code   494  mpu6050_driver.o(.text)
    MPU6050_getMotion6                       0x08003af1   Thumb Code   520  mpu6050_driver.o(.text)
    MPU6050_getlastMotion6                   0x08003cf9   Thumb Code    52  mpu6050_driver.o(.text)
    IIC_Delay                                0x08003d35   Thumb Code    26  mpu6050_i2c.o(.text)
    IIC_GPIO_Init                            0x08003d4f   Thumb Code    62  mpu6050_i2c.o(.text)
    IIC_SDA_Out                              0x08003d8d   Thumb Code    34  mpu6050_i2c.o(.text)
    IIC_SDA_In                               0x08003daf   Thumb Code    38  mpu6050_i2c.o(.text)
    IIC_Start                                0x08003dd5   Thumb Code    56  mpu6050_i2c.o(.text)
    IIC_Stop                                 0x08003e0d   Thumb Code    56  mpu6050_i2c.o(.text)
    IIC_Ack                                  0x08003e45   Thumb Code    62  mpu6050_i2c.o(.text)
    IIC_WaitAck                              0x08003e83   Thumb Code    90  mpu6050_i2c.o(.text)
    IIC_WriteBit                             0x08003edd   Thumb Code    90  mpu6050_i2c.o(.text)
    IIC_ReadBit                              0x08003f37   Thumb Code    80  mpu6050_i2c.o(.text)
    IIC_WriteData                            0x08003f87   Thumb Code    92  mpu6050_i2c.o(.text)
    IIC_ReadData                             0x08003fe3   Thumb Code   146  mpu6050_i2c.o(.text)
    MPU6050_IntConfiguration                 0x080040d1   Thumb Code   124  mpu6050_interrupt.o(.text)
    EXTI9_5_IRQHandler                       0x0800414d   Thumb Code   126  mpu6050_interrupt.o(.text)
    NVIC_PriorityGroupConfig                 0x080041d5   Thumb Code    10  misc.o(.text)
    NVIC_Init                                0x080041df   Thumb Code   106  misc.o(.text)
    NVIC_SetVectorTable                      0x08004249   Thumb Code    14  misc.o(.text)
    NVIC_SystemLPConfig                      0x08004257   Thumb Code    34  misc.o(.text)
    SysTick_CLKSourceConfig                  0x08004279   Thumb Code    40  misc.o(.text)
    CAN_DeInit                               0x080042b5   Thumb Code    50  stm32f4xx_can.o(.text)
    CAN_Init                                 0x080042e7   Thumb Code   276  stm32f4xx_can.o(.text)
    CAN_FilterInit                           0x080043fb   Thumb Code   258  stm32f4xx_can.o(.text)
    CAN_StructInit                           0x080044fd   Thumb Code    32  stm32f4xx_can.o(.text)
    CAN_SlaveStartBank                       0x0800451d   Thumb Code    48  stm32f4xx_can.o(.text)
    CAN_DBGFreeze                            0x0800454d   Thumb Code    22  stm32f4xx_can.o(.text)
    CAN_TTComModeCmd                         0x08004563   Thumb Code   118  stm32f4xx_can.o(.text)
    CAN_Transmit                             0x080045d9   Thumb Code   304  stm32f4xx_can.o(.text)
    CAN_TransmitStatus                       0x08004709   Thumb Code   138  stm32f4xx_can.o(.text)
    CAN_CancelTransmit                       0x08004793   Thumb Code    48  stm32f4xx_can.o(.text)
    CAN_Receive                              0x080047c3   Thumb Code   240  stm32f4xx_can.o(.text)
    CAN_FIFORelease                          0x080048b3   Thumb Code    22  stm32f4xx_can.o(.text)
    CAN_MessagePending                       0x080048c9   Thumb Code    30  stm32f4xx_can.o(.text)
    CAN_OperatingModeRequest                 0x080048e7   Thumb Code   162  stm32f4xx_can.o(.text)
    CAN_Sleep                                0x08004989   Thumb Code    30  stm32f4xx_can.o(.text)
    CAN_WakeUp                               0x080049a7   Thumb Code    48  stm32f4xx_can.o(.text)
    CAN_GetLastErrorCode                     0x080049d7   Thumb Code    12  stm32f4xx_can.o(.text)
    CAN_GetReceiveErrorCounter               0x080049e3   Thumb Code    10  stm32f4xx_can.o(.text)
    CAN_GetLSBTransmitErrorCounter           0x080049ed   Thumb Code    12  stm32f4xx_can.o(.text)
    CAN_ITConfig                             0x080049f9   Thumb Code    18  stm32f4xx_can.o(.text)
    CAN_GetFlagStatus                        0x08004a0b   Thumb Code   120  stm32f4xx_can.o(.text)
    CAN_ClearFlag                            0x08004a83   Thumb Code    52  stm32f4xx_can.o(.text)
    CAN_GetITStatus                          0x08004ac9   Thumb Code   310  stm32f4xx_can.o(.text)
    CAN_ClearITPendingBit                    0x08004bff   Thumb Code   162  stm32f4xx_can.o(.text)
    DMA_DeInit                               0x08004ca5   Thumb Code   324  stm32f4xx_dma.o(.text)
    DMA_Init                                 0x08004de9   Thumb Code    82  stm32f4xx_dma.o(.text)
    DMA_StructInit                           0x08004e3b   Thumb Code    34  stm32f4xx_dma.o(.text)
    DMA_Cmd                                  0x08004e5d   Thumb Code    22  stm32f4xx_dma.o(.text)
    DMA_PeriphIncOffsetSizeConfig            0x08004e73   Thumb Code    22  stm32f4xx_dma.o(.text)
    DMA_FlowControllerConfig                 0x08004e89   Thumb Code    22  stm32f4xx_dma.o(.text)
    DMA_SetCurrDataCounter                   0x08004e9f   Thumb Code     4  stm32f4xx_dma.o(.text)
    DMA_GetCurrDataCounter                   0x08004ea3   Thumb Code     8  stm32f4xx_dma.o(.text)
    DMA_DoubleBufferModeConfig               0x08004eab   Thumb Code    24  stm32f4xx_dma.o(.text)
    DMA_DoubleBufferModeCmd                  0x08004ec3   Thumb Code    22  stm32f4xx_dma.o(.text)
    DMA_MemoryTargetConfig                   0x08004ed9   Thumb Code    10  stm32f4xx_dma.o(.text)
    DMA_GetCurrentMemoryTarget               0x08004ee3   Thumb Code    20  stm32f4xx_dma.o(.text)
    DMA_GetCmdStatus                         0x08004ef7   Thumb Code    20  stm32f4xx_dma.o(.text)
    DMA_GetFIFOStatus                        0x08004f0b   Thumb Code    12  stm32f4xx_dma.o(.text)
    DMA_GetFlagStatus                        0x08004f17   Thumb Code    56  stm32f4xx_dma.o(.text)
    DMA_ClearFlag                            0x08004f4f   Thumb Code    40  stm32f4xx_dma.o(.text)
    DMA_ITConfig                             0x08004f77   Thumb Code    58  stm32f4xx_dma.o(.text)
    DMA_GetITStatus                          0x08004fb1   Thumb Code    84  stm32f4xx_dma.o(.text)
    DMA_ClearITPendingBit                    0x08005005   Thumb Code    40  stm32f4xx_dma.o(.text)
    EXTI_DeInit                              0x0800504d   Thumb Code    28  stm32f4xx_exti.o(.text)
    EXTI_Init                                0x08005069   Thumb Code   142  stm32f4xx_exti.o(.text)
    EXTI_StructInit                          0x080050f7   Thumb Code    16  stm32f4xx_exti.o(.text)
    EXTI_GenerateSWInterrupt                 0x08005107   Thumb Code    16  stm32f4xx_exti.o(.text)
    EXTI_GetFlagStatus                       0x08005117   Thumb Code    22  stm32f4xx_exti.o(.text)
    EXTI_ClearFlag                           0x0800512d   Thumb Code     8  stm32f4xx_exti.o(.text)
    EXTI_GetITStatus                         0x08005135   Thumb Code    34  stm32f4xx_exti.o(.text)
    EXTI_ClearITPendingBit                   0x08005157   Thumb Code     8  stm32f4xx_exti.o(.text)
    GPIO_DeInit                              0x08005169   Thumb Code   220  stm32f4xx_gpio.o(.text)
    GPIO_Init                                0x08005245   Thumb Code   144  stm32f4xx_gpio.o(.text)
    GPIO_StructInit                          0x080052d5   Thumb Code    18  stm32f4xx_gpio.o(.text)
    GPIO_PinLockConfig                       0x080052e7   Thumb Code    34  stm32f4xx_gpio.o(.text)
    GPIO_ReadInputDataBit                    0x08005309   Thumb Code    18  stm32f4xx_gpio.o(.text)
    GPIO_ReadInputData                       0x0800531b   Thumb Code     8  stm32f4xx_gpio.o(.text)
    GPIO_ReadOutputDataBit                   0x08005323   Thumb Code    18  stm32f4xx_gpio.o(.text)
    GPIO_ReadOutputData                      0x08005335   Thumb Code     8  stm32f4xx_gpio.o(.text)
    GPIO_SetBits                             0x0800533d   Thumb Code     4  stm32f4xx_gpio.o(.text)
    GPIO_ResetBits                           0x08005341   Thumb Code     4  stm32f4xx_gpio.o(.text)
    GPIO_WriteBit                            0x08005345   Thumb Code    10  stm32f4xx_gpio.o(.text)
    GPIO_Write                               0x0800534f   Thumb Code     4  stm32f4xx_gpio.o(.text)
    GPIO_ToggleBits                          0x08005353   Thumb Code     8  stm32f4xx_gpio.o(.text)
    GPIO_PinAFConfig                         0x0800535b   Thumb Code    70  stm32f4xx_gpio.o(.text)
    RCC_DeInit                               0x080053c5   Thumb Code    60  stm32f4xx_rcc.o(.text)
    RCC_HSEConfig                            0x08005401   Thumb Code    14  stm32f4xx_rcc.o(.text)
    RCC_GetFlagStatus                        0x0800540f   Thumb Code    60  stm32f4xx_rcc.o(.text)
    RCC_WaitForHSEStartUp                    0x0800544b   Thumb Code    56  stm32f4xx_rcc.o(.text)
    RCC_AdjustHSICalibrationValue            0x08005483   Thumb Code    20  stm32f4xx_rcc.o(.text)
    RCC_HSICmd                               0x08005497   Thumb Code     6  stm32f4xx_rcc.o(.text)
    RCC_LSEConfig                            0x0800549d   Thumb Code    46  stm32f4xx_rcc.o(.text)
    RCC_LSICmd                               0x080054cb   Thumb Code     6  stm32f4xx_rcc.o(.text)
    RCC_PLLConfig                            0x080054d1   Thumb Code    32  stm32f4xx_rcc.o(.text)
    RCC_PLLCmd                               0x080054f1   Thumb Code     6  stm32f4xx_rcc.o(.text)
    RCC_PLLI2SConfig                         0x080054f7   Thumb Code    14  stm32f4xx_rcc.o(.text)
    RCC_PLLI2SCmd                            0x08005505   Thumb Code     6  stm32f4xx_rcc.o(.text)
    RCC_ClockSecuritySystemCmd               0x0800550b   Thumb Code     6  stm32f4xx_rcc.o(.text)
    RCC_MCO1Config                           0x08005511   Thumb Code    28  stm32f4xx_rcc.o(.text)
    RCC_MCO2Config                           0x0800552d   Thumb Code    28  stm32f4xx_rcc.o(.text)
    RCC_SYSCLKConfig                         0x08005549   Thumb Code    20  stm32f4xx_rcc.o(.text)
    RCC_GetSYSCLKSource                      0x0800555d   Thumb Code    12  stm32f4xx_rcc.o(.text)
    RCC_HCLKConfig                           0x08005569   Thumb Code    20  stm32f4xx_rcc.o(.text)
    RCC_PCLK1Config                          0x0800557d   Thumb Code    20  stm32f4xx_rcc.o(.text)
    RCC_PCLK2Config                          0x08005591   Thumb Code    22  stm32f4xx_rcc.o(.text)
    RCC_GetClocksFreq                        0x080055a7   Thumb Code   222  stm32f4xx_rcc.o(.text)
    RCC_RTCCLKConfig                         0x08005685   Thumb Code    54  stm32f4xx_rcc.o(.text)
    RCC_RTCCLKCmd                            0x080056bb   Thumb Code     8  stm32f4xx_rcc.o(.text)
    RCC_BackupResetCmd                       0x080056c3   Thumb Code     8  stm32f4xx_rcc.o(.text)
    RCC_I2SCLKConfig                         0x080056cb   Thumb Code     6  stm32f4xx_rcc.o(.text)
    RCC_AHB1PeriphClockCmd                   0x080056d1   Thumb Code    34  stm32f4xx_rcc.o(.text)
    RCC_AHB2PeriphClockCmd                   0x080056f3   Thumb Code    34  stm32f4xx_rcc.o(.text)
    RCC_AHB3PeriphClockCmd                   0x08005715   Thumb Code    34  stm32f4xx_rcc.o(.text)
    RCC_APB1PeriphClockCmd                   0x08005737   Thumb Code    34  stm32f4xx_rcc.o(.text)
    RCC_APB2PeriphClockCmd                   0x08005759   Thumb Code    34  stm32f4xx_rcc.o(.text)
    RCC_AHB1PeriphResetCmd                   0x0800577b   Thumb Code    34  stm32f4xx_rcc.o(.text)
    RCC_AHB2PeriphResetCmd                   0x0800579d   Thumb Code    72  stm32f4xx_rcc.o(.text)
    RCC_AHB3PeriphResetCmd                   0x080057e5   Thumb Code    34  stm32f4xx_rcc.o(.text)
    RCC_APB1PeriphResetCmd                   0x08005807   Thumb Code    34  stm32f4xx_rcc.o(.text)
    RCC_APB2PeriphResetCmd                   0x08005829   Thumb Code    34  stm32f4xx_rcc.o(.text)
    RCC_AHB1PeriphClockLPModeCmd             0x0800584b   Thumb Code    34  stm32f4xx_rcc.o(.text)
    RCC_AHB2PeriphClockLPModeCmd             0x0800586d   Thumb Code    34  stm32f4xx_rcc.o(.text)
    RCC_AHB3PeriphClockLPModeCmd             0x0800588f   Thumb Code    34  stm32f4xx_rcc.o(.text)
    RCC_APB1PeriphClockLPModeCmd             0x080058b1   Thumb Code    34  stm32f4xx_rcc.o(.text)
    RCC_APB2PeriphClockLPModeCmd             0x080058d3   Thumb Code    34  stm32f4xx_rcc.o(.text)
    RCC_ITConfig                             0x080058f5   Thumb Code    34  stm32f4xx_rcc.o(.text)
    RCC_ClearFlag                            0x08005917   Thumb Code    18  stm32f4xx_rcc.o(.text)
    RCC_GetITStatus                          0x08005929   Thumb Code    22  stm32f4xx_rcc.o(.text)
    RCC_ClearITPendingBit                    0x0800593f   Thumb Code     8  stm32f4xx_rcc.o(.text)
    SPI_I2S_DeInit                           0x0800594d   Thumb Code    76  stm32f4xx_spi.o(.text)
    SPI_Init                                 0x08005999   Thumb Code    60  stm32f4xx_spi.o(.text)
    I2S_Init                                 0x080059d5   Thumb Code   350  stm32f4xx_spi.o(.text)
    SPI_StructInit                           0x08005b33   Thumb Code    24  stm32f4xx_spi.o(.text)
    I2S_StructInit                           0x08005b4b   Thumb Code    20  stm32f4xx_spi.o(.text)
    SPI_Cmd                                  0x08005b5f   Thumb Code    24  stm32f4xx_spi.o(.text)
    I2S_Cmd                                  0x08005b77   Thumb Code    24  stm32f4xx_spi.o(.text)
    SPI_DataSizeConfig                       0x08005b8f   Thumb Code    18  stm32f4xx_spi.o(.text)
    SPI_BiDirectionalLineConfig              0x08005ba1   Thumb Code    28  stm32f4xx_spi.o(.text)
    SPI_NSSInternalSoftwareConfig            0x08005bbd   Thumb Code    30  stm32f4xx_spi.o(.text)
    SPI_SSOutputCmd                          0x08005bdb   Thumb Code    24  stm32f4xx_spi.o(.text)
    SPI_TIModeCmd                            0x08005bf3   Thumb Code    24  stm32f4xx_spi.o(.text)
    I2S_FullDuplexConfig                     0x08005c0b   Thumb Code    80  stm32f4xx_spi.o(.text)
    SPI_I2S_ReceiveData                      0x08005c5b   Thumb Code     6  stm32f4xx_spi.o(.text)
    SPI_I2S_SendData                         0x08005c61   Thumb Code     4  stm32f4xx_spi.o(.text)
    SPI_CalculateCRC                         0x08005c65   Thumb Code    24  stm32f4xx_spi.o(.text)
    SPI_TransmitCRC                          0x08005c7d   Thumb Code    10  stm32f4xx_spi.o(.text)
    SPI_GetCRC                               0x08005c87   Thumb Code    16  stm32f4xx_spi.o(.text)
    SPI_GetCRCPolynomial                     0x08005c97   Thumb Code     6  stm32f4xx_spi.o(.text)
    SPI_I2S_DMACmd                           0x08005c9d   Thumb Code    18  stm32f4xx_spi.o(.text)
    SPI_I2S_ITConfig                         0x08005caf   Thumb Code    32  stm32f4xx_spi.o(.text)
    SPI_I2S_GetFlagStatus                    0x08005ccf   Thumb Code    18  stm32f4xx_spi.o(.text)
    SPI_I2S_ClearFlag                        0x08005ce1   Thumb Code     6  stm32f4xx_spi.o(.text)
    SPI_I2S_GetITStatus                      0x08005ce7   Thumb Code    52  stm32f4xx_spi.o(.text)
    SPI_I2S_ClearITPendingBit                0x08005d1b   Thumb Code    42  stm32f4xx_spi.o(.text)
    SYSCFG_DeInit                            0x08005d45   Thumb Code    22  stm32f4xx_syscfg.o(.text)
    SYSCFG_MemoryRemapConfig                 0x08005d5b   Thumb Code     6  stm32f4xx_syscfg.o(.text)
    SYSCFG_EXTILineConfig                    0x08005d61   Thumb Code    66  stm32f4xx_syscfg.o(.text)
    SYSCFG_ETH_MediaInterfaceConfig          0x08005da3   Thumb Code     6  stm32f4xx_syscfg.o(.text)
    SYSCFG_CompensationCellCmd               0x08005da9   Thumb Code     6  stm32f4xx_syscfg.o(.text)
    SYSCFG_GetCompensationCellStatus         0x08005daf   Thumb Code    22  stm32f4xx_syscfg.o(.text)
    TIM_DeInit                               0x08005dd1   Thumb Code   346  stm32f4xx_tim.o(.text)
    TIM_TimeBaseInit                         0x08005f2b   Thumb Code   104  stm32f4xx_tim.o(.text)
    TIM_TimeBaseStructInit                   0x08005f93   Thumb Code    18  stm32f4xx_tim.o(.text)
    TIM_PrescalerConfig                      0x08005fa5   Thumb Code     6  stm32f4xx_tim.o(.text)
    TIM_CounterModeConfig                    0x08005fab   Thumb Code    18  stm32f4xx_tim.o(.text)
    TIM_SetCounter                           0x08005fbd   Thumb Code     4  stm32f4xx_tim.o(.text)
    TIM_SetAutoreload                        0x08005fc1   Thumb Code     4  stm32f4xx_tim.o(.text)
    TIM_GetCounter                           0x08005fc5   Thumb Code     6  stm32f4xx_tim.o(.text)
    TIM_GetPrescaler                         0x08005fcb   Thumb Code     6  stm32f4xx_tim.o(.text)
    TIM_UpdateDisableConfig                  0x08005fd1   Thumb Code    24  stm32f4xx_tim.o(.text)
    TIM_UpdateRequestConfig                  0x08005fe9   Thumb Code    24  stm32f4xx_tim.o(.text)
    TIM_ARRPreloadConfig                     0x08006001   Thumb Code    24  stm32f4xx_tim.o(.text)
    TIM_SelectOnePulseMode                   0x08006019   Thumb Code    18  stm32f4xx_tim.o(.text)
    TIM_SetClockDivision                     0x0800602b   Thumb Code    18  stm32f4xx_tim.o(.text)
    TIM_Cmd                                  0x0800603d   Thumb Code    24  stm32f4xx_tim.o(.text)
    TIM_OC1Init                              0x08006055   Thumb Code   114  stm32f4xx_tim.o(.text)
    TIM_OC2Init                              0x080060c7   Thumb Code   154  stm32f4xx_tim.o(.text)
    TIM_OC3Init                              0x08006161   Thumb Code   204  stm32f4xx_tim.o(.text)
    TIM_OC4Init                              0x0800622d   Thumb Code   112  stm32f4xx_tim.o(.text)
    TIM_OCStructInit                         0x0800629d   Thumb Code    20  stm32f4xx_tim.o(.text)
    TIM_SelectOCxM                           0x080062b1   Thumb Code    86  stm32f4xx_tim.o(.text)
    TIM_SetCompare1                          0x08006307   Thumb Code     4  stm32f4xx_tim.o(.text)
    TIM_SetCompare2                          0x0800630b   Thumb Code     4  stm32f4xx_tim.o(.text)
    TIM_SetCompare3                          0x0800630f   Thumb Code     4  stm32f4xx_tim.o(.text)
    TIM_SetCompare4                          0x08006313   Thumb Code     4  stm32f4xx_tim.o(.text)
    TIM_ForcedOC1Config                      0x08006317   Thumb Code    18  stm32f4xx_tim.o(.text)
    TIM_ForcedOC2Config                      0x08006329   Thumb Code    26  stm32f4xx_tim.o(.text)
    TIM_ForcedOC3Config                      0x08006343   Thumb Code    18  stm32f4xx_tim.o(.text)
    TIM_ForcedOC4Config                      0x08006355   Thumb Code    26  stm32f4xx_tim.o(.text)
    TIM_OC1PreloadConfig                     0x0800636f   Thumb Code    18  stm32f4xx_tim.o(.text)
    TIM_OC2PreloadConfig                     0x08006381   Thumb Code    26  stm32f4xx_tim.o(.text)
    TIM_OC3PreloadConfig                     0x0800639b   Thumb Code    18  stm32f4xx_tim.o(.text)
    TIM_OC4PreloadConfig                     0x080063ad   Thumb Code    26  stm32f4xx_tim.o(.text)
    TIM_OC1FastConfig                        0x080063c7   Thumb Code    18  stm32f4xx_tim.o(.text)
    TIM_OC2FastConfig                        0x080063d9   Thumb Code    26  stm32f4xx_tim.o(.text)
    TIM_OC3FastConfig                        0x080063f3   Thumb Code    18  stm32f4xx_tim.o(.text)
    TIM_OC4FastConfig                        0x08006405   Thumb Code    26  stm32f4xx_tim.o(.text)
    TIM_ClearOC1Ref                          0x0800641f   Thumb Code    18  stm32f4xx_tim.o(.text)
    TIM_ClearOC2Ref                          0x08006431   Thumb Code    24  stm32f4xx_tim.o(.text)
    TIM_ClearOC3Ref                          0x08006449   Thumb Code    18  stm32f4xx_tim.o(.text)
    TIM_ClearOC4Ref                          0x0800645b   Thumb Code    24  stm32f4xx_tim.o(.text)
    TIM_OC1PolarityConfig                    0x08006473   Thumb Code    18  stm32f4xx_tim.o(.text)
    TIM_OC1NPolarityConfig                   0x08006485   Thumb Code    18  stm32f4xx_tim.o(.text)
    TIM_OC2PolarityConfig                    0x08006497   Thumb Code    26  stm32f4xx_tim.o(.text)
    TIM_OC2NPolarityConfig                   0x080064b1   Thumb Code    26  stm32f4xx_tim.o(.text)
    TIM_OC3PolarityConfig                    0x080064cb   Thumb Code    26  stm32f4xx_tim.o(.text)
    TIM_OC3NPolarityConfig                   0x080064e5   Thumb Code    26  stm32f4xx_tim.o(.text)
    TIM_OC4PolarityConfig                    0x080064ff   Thumb Code    26  stm32f4xx_tim.o(.text)
    TIM_CCxCmd                               0x08006519   Thumb Code    30  stm32f4xx_tim.o(.text)
    TIM_CCxNCmd                              0x08006537   Thumb Code    30  stm32f4xx_tim.o(.text)
    TIM_SetIC4Prescaler                      0x08006555   Thumb Code    26  stm32f4xx_tim.o(.text)
    TIM_SetIC3Prescaler                      0x080065bf   Thumb Code    18  stm32f4xx_tim.o(.text)
    TIM_SetIC2Prescaler                      0x08006619   Thumb Code    26  stm32f4xx_tim.o(.text)
    TIM_SetIC1Prescaler                      0x0800668d   Thumb Code    18  stm32f4xx_tim.o(.text)
    TIM_ICInit                               0x080066d9   Thumb Code   110  stm32f4xx_tim.o(.text)
    TIM_ICStructInit                         0x08006747   Thumb Code    18  stm32f4xx_tim.o(.text)
    TIM_PWMIConfig                           0x08006759   Thumb Code   124  stm32f4xx_tim.o(.text)
    TIM_GetCapture1                          0x080067d5   Thumb Code     6  stm32f4xx_tim.o(.text)
    TIM_GetCapture2                          0x080067db   Thumb Code     6  stm32f4xx_tim.o(.text)
    TIM_GetCapture3                          0x080067e1   Thumb Code     6  stm32f4xx_tim.o(.text)
    TIM_GetCapture4                          0x080067e7   Thumb Code     6  stm32f4xx_tim.o(.text)
    TIM_BDTRConfig                           0x080067ed   Thumb Code    32  stm32f4xx_tim.o(.text)
    TIM_BDTRStructInit                       0x0800680d   Thumb Code    18  stm32f4xx_tim.o(.text)
    TIM_CtrlPWMOutputs                       0x0800681f   Thumb Code    30  stm32f4xx_tim.o(.text)
    TIM_SelectCOM                            0x0800683d   Thumb Code    24  stm32f4xx_tim.o(.text)
    TIM_CCPreloadControl                     0x08006855   Thumb Code    24  stm32f4xx_tim.o(.text)
    TIM_ITConfig                             0x0800686d   Thumb Code    18  stm32f4xx_tim.o(.text)
    TIM_GenerateEvent                        0x0800687f   Thumb Code     4  stm32f4xx_tim.o(.text)
    TIM_GetFlagStatus                        0x08006883   Thumb Code    18  stm32f4xx_tim.o(.text)
    TIM_ClearFlag                            0x08006895   Thumb Code     6  stm32f4xx_tim.o(.text)
    TIM_GetITStatus                          0x0800689b   Thumb Code    34  stm32f4xx_tim.o(.text)
    TIM_ClearITPendingBit                    0x080068bd   Thumb Code     6  stm32f4xx_tim.o(.text)
    TIM_DMAConfig                            0x080068c3   Thumb Code    10  stm32f4xx_tim.o(.text)
    TIM_DMACmd                               0x080068cd   Thumb Code    18  stm32f4xx_tim.o(.text)
    TIM_SelectCCDMA                          0x080068df   Thumb Code    24  stm32f4xx_tim.o(.text)
    TIM_InternalClockConfig                  0x080068f7   Thumb Code    12  stm32f4xx_tim.o(.text)
    TIM_SelectInputTrigger                   0x08006903   Thumb Code    18  stm32f4xx_tim.o(.text)
    TIM_ITRxExternalClockConfig              0x08006915   Thumb Code    24  stm32f4xx_tim.o(.text)
    TIM_TIxExternalClockConfig               0x0800692d   Thumb Code    62  stm32f4xx_tim.o(.text)
    TIM_ETRConfig                            0x0800696b   Thumb Code    28  stm32f4xx_tim.o(.text)
    TIM_ETRClockMode1Config                  0x08006987   Thumb Code    54  stm32f4xx_tim.o(.text)
    TIM_ETRClockMode2Config                  0x080069bd   Thumb Code    32  stm32f4xx_tim.o(.text)
    TIM_SelectOutputTrigger                  0x080069dd   Thumb Code    18  stm32f4xx_tim.o(.text)
    TIM_SelectSlaveMode                      0x080069ef   Thumb Code    18  stm32f4xx_tim.o(.text)
    TIM_SelectMasterSlaveMode                0x08006a01   Thumb Code    18  stm32f4xx_tim.o(.text)
    TIM_EncoderInterfaceConfig               0x08006a13   Thumb Code    66  stm32f4xx_tim.o(.text)
    TIM_SelectHallSensor                     0x08006a55   Thumb Code    24  stm32f4xx_tim.o(.text)
    TIM_RemapConfig                          0x08006a6d   Thumb Code     6  stm32f4xx_tim.o(.text)
    USART_DeInit                             0x08006a75   Thumb Code   156  stm32f4xx_usart.o(.text)
    USART_Init                               0x08006b11   Thumb Code   204  stm32f4xx_usart.o(.text)
    USART_StructInit                         0x08006bdd   Thumb Code    24  stm32f4xx_usart.o(.text)
    USART_ClockInit                          0x08006bf5   Thumb Code    32  stm32f4xx_usart.o(.text)
    USART_ClockStructInit                    0x08006c15   Thumb Code    12  stm32f4xx_usart.o(.text)
    USART_Cmd                                0x08006c21   Thumb Code    24  stm32f4xx_usart.o(.text)
    USART_SetPrescaler                       0x08006c39   Thumb Code    16  stm32f4xx_usart.o(.text)
    USART_OverSampling8Cmd                   0x08006c49   Thumb Code    22  stm32f4xx_usart.o(.text)
    USART_OneBitMethodCmd                    0x08006c5f   Thumb Code    24  stm32f4xx_usart.o(.text)
    USART_SendData                           0x08006c77   Thumb Code     8  stm32f4xx_usart.o(.text)
    USART_ReceiveData                        0x08006c7f   Thumb Code    10  stm32f4xx_usart.o(.text)
    USART_SetAddress                         0x08006c89   Thumb Code    18  stm32f4xx_usart.o(.text)
    USART_ReceiverWakeUpCmd                  0x08006c9b   Thumb Code    24  stm32f4xx_usart.o(.text)
    USART_WakeUpConfig                       0x08006cb3   Thumb Code    18  stm32f4xx_usart.o(.text)
    USART_LINBreakDetectLengthConfig         0x08006cc5   Thumb Code    18  stm32f4xx_usart.o(.text)
    USART_LINCmd                             0x08006cd7   Thumb Code    24  stm32f4xx_usart.o(.text)
    USART_SendBreak                          0x08006cef   Thumb Code    10  stm32f4xx_usart.o(.text)
    USART_HalfDuplexCmd                      0x08006cf9   Thumb Code    24  stm32f4xx_usart.o(.text)
    USART_SetGuardTime                       0x08006d11   Thumb Code    16  stm32f4xx_usart.o(.text)
    USART_SmartCardCmd                       0x08006d21   Thumb Code    24  stm32f4xx_usart.o(.text)
    USART_SmartCardNACKCmd                   0x08006d39   Thumb Code    24  stm32f4xx_usart.o(.text)
    USART_IrDAConfig                         0x08006d51   Thumb Code    18  stm32f4xx_usart.o(.text)
    USART_IrDACmd                            0x08006d63   Thumb Code    24  stm32f4xx_usart.o(.text)
    USART_DMACmd                             0x08006d7b   Thumb Code    18  stm32f4xx_usart.o(.text)
    USART_ITConfig                           0x08006d8d   Thumb Code    74  stm32f4xx_usart.o(.text)
    USART_GetFlagStatus                      0x08006dd7   Thumb Code    26  stm32f4xx_usart.o(.text)
    USART_ClearFlag                          0x08006df1   Thumb Code    18  stm32f4xx_usart.o(.text)
    USART_GetITStatus                        0x08006e03   Thumb Code   110  stm32f4xx_usart.o(.text)
    USART_ClearITPendingBit                  0x08006e71   Thumb Code    30  stm32f4xx_usart.o(.text)
    SystemInit                               0x08006f6d   Thumb Code    88  system_stm32f4xx.o(.text)
    SystemCoreClockUpdate                    0x08006fc5   Thumb Code   174  system_stm32f4xx.o(.text)
    Reset_Handler                            0x080070a1   Thumb Code     8  startup_stm32f4xx.o(.text)
    NMI_Handler                              0x080070a9   Thumb Code     2  startup_stm32f4xx.o(.text)
    HardFault_Handler                        0x080070ab   Thumb Code     2  startup_stm32f4xx.o(.text)
    MemManage_Handler                        0x080070ad   Thumb Code     2  startup_stm32f4xx.o(.text)
    BusFault_Handler                         0x080070af   Thumb Code     2  startup_stm32f4xx.o(.text)
    UsageFault_Handler                       0x080070b1   Thumb Code     2  startup_stm32f4xx.o(.text)
    SVC_Handler                              0x080070b3   Thumb Code     2  startup_stm32f4xx.o(.text)
    DebugMon_Handler                         0x080070b5   Thumb Code     2  startup_stm32f4xx.o(.text)
    PendSV_Handler                           0x080070b7   Thumb Code     2  startup_stm32f4xx.o(.text)
    SysTick_Handler                          0x080070b9   Thumb Code     2  startup_stm32f4xx.o(.text)
    ADC_IRQHandler                           0x080070bb   Thumb Code     0  startup_stm32f4xx.o(.text)
    CAN1_RX1_IRQHandler                      0x080070bb   Thumb Code     0  startup_stm32f4xx.o(.text)
    CAN1_SCE_IRQHandler                      0x080070bb   Thumb Code     0  startup_stm32f4xx.o(.text)
    CAN2_RX1_IRQHandler                      0x080070bb   Thumb Code     0  startup_stm32f4xx.o(.text)
    CAN2_SCE_IRQHandler                      0x080070bb   Thumb Code     0  startup_stm32f4xx.o(.text)
    CRYP_IRQHandler                          0x080070bb   Thumb Code     0  startup_stm32f4xx.o(.text)
    DCMI_IRQHandler                          0x080070bb   Thumb Code     0  startup_stm32f4xx.o(.text)
    DMA1_Stream0_IRQHandler                  0x080070bb   Thumb Code     0  startup_stm32f4xx.o(.text)
    DMA1_Stream1_IRQHandler                  0x080070bb   Thumb Code     0  startup_stm32f4xx.o(.text)
    DMA1_Stream2_IRQHandler                  0x080070bb   Thumb Code     0  startup_stm32f4xx.o(.text)
    DMA1_Stream3_IRQHandler                  0x080070bb   Thumb Code     0  startup_stm32f4xx.o(.text)
    DMA1_Stream4_IRQHandler                  0x080070bb   Thumb Code     0  startup_stm32f4xx.o(.text)
    DMA1_Stream5_IRQHandler                  0x080070bb   Thumb Code     0  startup_stm32f4xx.o(.text)
    DMA1_Stream6_IRQHandler                  0x080070bb   Thumb Code     0  startup_stm32f4xx.o(.text)
    DMA1_Stream7_IRQHandler                  0x080070bb   Thumb Code     0  startup_stm32f4xx.o(.text)
    DMA2_Stream0_IRQHandler                  0x080070bb   Thumb Code     0  startup_stm32f4xx.o(.text)
    DMA2_Stream1_IRQHandler                  0x080070bb   Thumb Code     0  startup_stm32f4xx.o(.text)
    DMA2_Stream2_IRQHandler                  0x080070bb   Thumb Code     0  startup_stm32f4xx.o(.text)
    DMA2_Stream3_IRQHandler                  0x080070bb   Thumb Code     0  startup_stm32f4xx.o(.text)
    DMA2_Stream4_IRQHandler                  0x080070bb   Thumb Code     0  startup_stm32f4xx.o(.text)
    DMA2_Stream5_IRQHandler                  0x080070bb   Thumb Code     0  startup_stm32f4xx.o(.text)
    DMA2_Stream6_IRQHandler                  0x080070bb   Thumb Code     0  startup_stm32f4xx.o(.text)
    DMA2_Stream7_IRQHandler                  0x080070bb   Thumb Code     0  startup_stm32f4xx.o(.text)
    ETH_IRQHandler                           0x080070bb   Thumb Code     0  startup_stm32f4xx.o(.text)
    ETH_WKUP_IRQHandler                      0x080070bb   Thumb Code     0  startup_stm32f4xx.o(.text)
    EXTI0_IRQHandler                         0x080070bb   Thumb Code     0  startup_stm32f4xx.o(.text)
    EXTI15_10_IRQHandler                     0x080070bb   Thumb Code     0  startup_stm32f4xx.o(.text)
    EXTI1_IRQHandler                         0x080070bb   Thumb Code     0  startup_stm32f4xx.o(.text)
    EXTI2_IRQHandler                         0x080070bb   Thumb Code     0  startup_stm32f4xx.o(.text)
    EXTI3_IRQHandler                         0x080070bb   Thumb Code     0  startup_stm32f4xx.o(.text)
    EXTI4_IRQHandler                         0x080070bb   Thumb Code     0  startup_stm32f4xx.o(.text)
    FLASH_IRQHandler                         0x080070bb   Thumb Code     0  startup_stm32f4xx.o(.text)
    FPU_IRQHandler                           0x080070bb   Thumb Code     0  startup_stm32f4xx.o(.text)
    FSMC_IRQHandler                          0x080070bb   Thumb Code     0  startup_stm32f4xx.o(.text)
    HASH_RNG_IRQHandler                      0x080070bb   Thumb Code     0  startup_stm32f4xx.o(.text)
    I2C1_ER_IRQHandler                       0x080070bb   Thumb Code     0  startup_stm32f4xx.o(.text)
    I2C1_EV_IRQHandler                       0x080070bb   Thumb Code     0  startup_stm32f4xx.o(.text)
    I2C2_ER_IRQHandler                       0x080070bb   Thumb Code     0  startup_stm32f4xx.o(.text)
    I2C2_EV_IRQHandler                       0x080070bb   Thumb Code     0  startup_stm32f4xx.o(.text)
    I2C3_ER_IRQHandler                       0x080070bb   Thumb Code     0  startup_stm32f4xx.o(.text)
    I2C3_EV_IRQHandler                       0x080070bb   Thumb Code     0  startup_stm32f4xx.o(.text)
    OTG_FS_IRQHandler                        0x080070bb   Thumb Code     0  startup_stm32f4xx.o(.text)
    OTG_FS_WKUP_IRQHandler                   0x080070bb   Thumb Code     0  startup_stm32f4xx.o(.text)
    OTG_HS_EP1_IN_IRQHandler                 0x080070bb   Thumb Code     0  startup_stm32f4xx.o(.text)
    OTG_HS_EP1_OUT_IRQHandler                0x080070bb   Thumb Code     0  startup_stm32f4xx.o(.text)
    OTG_HS_IRQHandler                        0x080070bb   Thumb Code     0  startup_stm32f4xx.o(.text)
    OTG_HS_WKUP_IRQHandler                   0x080070bb   Thumb Code     0  startup_stm32f4xx.o(.text)
    PVD_IRQHandler                           0x080070bb   Thumb Code     0  startup_stm32f4xx.o(.text)
    RCC_IRQHandler                           0x080070bb   Thumb Code     0  startup_stm32f4xx.o(.text)
    RTC_Alarm_IRQHandler                     0x080070bb   Thumb Code     0  startup_stm32f4xx.o(.text)
    RTC_WKUP_IRQHandler                      0x080070bb   Thumb Code     0  startup_stm32f4xx.o(.text)
    SDIO_IRQHandler                          0x080070bb   Thumb Code     0  startup_stm32f4xx.o(.text)
    SPI1_IRQHandler                          0x080070bb   Thumb Code     0  startup_stm32f4xx.o(.text)
    SPI2_IRQHandler                          0x080070bb   Thumb Code     0  startup_stm32f4xx.o(.text)
    SPI3_IRQHandler                          0x080070bb   Thumb Code     0  startup_stm32f4xx.o(.text)
    TAMP_STAMP_IRQHandler                    0x080070bb   Thumb Code     0  startup_stm32f4xx.o(.text)
    TIM1_BRK_TIM9_IRQHandler                 0x080070bb   Thumb Code     0  startup_stm32f4xx.o(.text)
    TIM1_CC_IRQHandler                       0x080070bb   Thumb Code     0  startup_stm32f4xx.o(.text)
    TIM1_TRG_COM_TIM11_IRQHandler            0x080070bb   Thumb Code     0  startup_stm32f4xx.o(.text)
    TIM1_UP_TIM10_IRQHandler                 0x080070bb   Thumb Code     0  startup_stm32f4xx.o(.text)
    TIM3_IRQHandler                          0x080070bb   Thumb Code     0  startup_stm32f4xx.o(.text)
    TIM4_IRQHandler                          0x080070bb   Thumb Code     0  startup_stm32f4xx.o(.text)
    TIM5_IRQHandler                          0x080070bb   Thumb Code     0  startup_stm32f4xx.o(.text)
    TIM7_IRQHandler                          0x080070bb   Thumb Code     0  startup_stm32f4xx.o(.text)
    TIM8_BRK_TIM12_IRQHandler                0x080070bb   Thumb Code     0  startup_stm32f4xx.o(.text)
    TIM8_CC_IRQHandler                       0x080070bb   Thumb Code     0  startup_stm32f4xx.o(.text)
    TIM8_TRG_COM_TIM14_IRQHandler            0x080070bb   Thumb Code     0  startup_stm32f4xx.o(.text)
    TIM8_UP_TIM13_IRQHandler                 0x080070bb   Thumb Code     0  startup_stm32f4xx.o(.text)
    UART4_IRQHandler                         0x080070bb   Thumb Code     0  startup_stm32f4xx.o(.text)
    UART5_IRQHandler                         0x080070bb   Thumb Code     0  startup_stm32f4xx.o(.text)
    USART6_IRQHandler                        0x080070bb   Thumb Code     0  startup_stm32f4xx.o(.text)
    WWDG_IRQHandler                          0x080070bb   Thumb Code     0  startup_stm32f4xx.o(.text)
    NRF24L01_Init                            0x080070c5   Thumb Code   164  nrf24l01.o(.text)
    NRF24L01_ReadBuf                         0x08007169   Thumb Code    60  nrf24l01.o(.text)
    NRF24L01_WriteBuf                        0x080071a5   Thumb Code    60  nrf24l01.o(.text)
    NRF24L01_Check                           0x080071e1   Thumb Code    78  nrf24l01.o(.text)
    NRF24L01_WriteReg                        0x0800722f   Thumb Code    40  nrf24l01.o(.text)
    NRF24L01_ReadReg                         0x08007257   Thumb Code    38  nrf24l01.o(.text)
    NRF24L01_Tx                              0x0800727d   Thumb Code   108  nrf24l01.o(.text)
    NRF24L01_Rx                              0x080072e9   Thumb Code    52  nrf24l01.o(.text)
    RX_Mode                                  0x0800731d   Thumb Code    88  nrf24l01.o(.text)
    TX_Mode                                  0x08007375   Thumb Code    88  nrf24l01.o(.text)
    ShowImuData                              0x080073e5   Thumb Code   130  main.o(.text)
    ShowZGyroData                            0x08007467   Thumb Code    34  main.o(.text)
    main                                     0x08007489   Thumb Code   138  main.o(.text)
    __aeabi_memset                           0x08007575   Thumb Code    14  memseta.o(.text)
    __aeabi_memset4                          0x08007575   Thumb Code     0  memseta.o(.text)
    __aeabi_memset8                          0x08007575   Thumb Code     0  memseta.o(.text)
    __aeabi_memclr                           0x08007583   Thumb Code     4  memseta.o(.text)
    __aeabi_memclr4                          0x08007583   Thumb Code     0  memseta.o(.text)
    __aeabi_memclr8                          0x08007583   Thumb Code     0  memseta.o(.text)
    _memset$wrapper                          0x08007587   Thumb Code    18  memseta.o(.text)
    strlen                                   0x08007599   Thumb Code    14  strlen.o(.text)
    __aeabi_dmul                             0x080075a7   Thumb Code   228  dmul.o(.text)
    __aeabi_ddiv                             0x0800768b   Thumb Code   222  ddiv.o(.text)
    __aeabi_i2d                              0x08007769   Thumb Code    34  dflti.o(.text)
    __aeabi_f2d                              0x0800778b   Thumb Code    38  f2d.o(.text)
    __aeabi_cdrcmple                         0x080077b1   Thumb Code    48  cdrcmple.o(.text)
    __aeabi_d2f                              0x080077e1   Thumb Code    56  d2f.o(.text)
    __aeabi_uidiv                            0x08007819   Thumb Code     0  uidiv.o(.text)
    __aeabi_uidivmod                         0x08007819   Thumb Code    44  uidiv.o(.text)
    __aeabi_uldivmod                         0x08007845   Thumb Code    98  uldiv.o(.text)
    __I$use$fp                               0x080078a7   Thumb Code     0  iusefp.o(.text)
    _float_round                             0x080078a7   Thumb Code    18  fepilogue.o(.text)
    _float_epilogue                          0x080078b9   Thumb Code    92  fepilogue.o(.text)
    _double_round                            0x08007915   Thumb Code    30  depilogue.o(.text)
    _double_epilogue                         0x08007933   Thumb Code   156  depilogue.o(.text)
    __aeabi_dadd                             0x080079cf   Thumb Code   322  dadd.o(.text)
    __aeabi_dsub                             0x08007b11   Thumb Code     6  dadd.o(.text)
    __aeabi_drsub                            0x08007b17   Thumb Code     6  dadd.o(.text)
    _dsqrt                                   0x08007b1d   Thumb Code   162  dsqrt.o(.text)
    __aeabi_d2ulz                            0x08007bbf   Thumb Code    48  dfixul.o(.text)
    __scatterload                            0x08007bf1   Thumb Code    28  init.o(.text)
    __scatterload_rt2                        0x08007bf1   Thumb Code     0  init.o(.text)
    __aeabi_llsl                             0x08007c15   Thumb Code    30  llshl.o(.text)
    _ll_shift_l                              0x08007c15   Thumb Code     0  llshl.o(.text)
    __aeabi_llsr                             0x08007c33   Thumb Code    32  llushr.o(.text)
    _ll_ushift_r                             0x08007c33   Thumb Code     0  llushr.o(.text)
    __aeabi_lasr                             0x08007c53   Thumb Code    36  llsshr.o(.text)
    _ll_sshift_r                             0x08007c53   Thumb Code     0  llsshr.o(.text)
    __decompress                             0x08007c77   Thumb Code     0  __dczerorl2.o(.text)
    __decompress1                            0x08007c77   Thumb Code    86  __dczerorl2.o(.text)
    __0printf                                0x08007ccd   Thumb Code    22  printfa.o(i.__0printf)
    __1printf                                0x08007ccd   Thumb Code     0  printfa.o(i.__0printf)
    __2printf                                0x08007ccd   Thumb Code     0  printfa.o(i.__0printf)
    __c89printf                              0x08007ccd   Thumb Code     0  printfa.o(i.__0printf)
    printf                                   0x08007ccd   Thumb Code     0  printfa.o(i.__0printf)
    __ARM_fpclassify                         0x08007ced   Thumb Code    48  fpclassify.o(i.__ARM_fpclassify)
    __hardfp_asin                            0x08007d21   Thumb Code   770  asin.o(i.__hardfp_asin)
    __hardfp_atan                            0x08008081   Thumb Code   622  atan.o(i.__hardfp_atan)
    __hardfp_atan2                           0x08008359   Thumb Code   432  atan2.o(i.__hardfp_atan2)
    __hardfp_fabs                            0x08008549   Thumb Code    20  fabs.o(i.__hardfp_fabs)
    __hardfp_sqrt                            0x0800855d   Thumb Code   122  sqrt.o(i.__hardfp_sqrt)
    __kernel_poly                            0x080085d7   Thumb Code   248  poly.o(i.__kernel_poly)
    __mathlib_dbl_infnan                     0x080086cf   Thumb Code    20  dunder.o(i.__mathlib_dbl_infnan)
    __mathlib_dbl_infnan2                    0x080086e3   Thumb Code    20  dunder.o(i.__mathlib_dbl_infnan2)
    __mathlib_dbl_invalid                    0x080086f9   Thumb Code    24  dunder.o(i.__mathlib_dbl_invalid)
    __mathlib_dbl_underflow                  0x08008719   Thumb Code    24  dunder.o(i.__mathlib_dbl_underflow)
    __scatterload_copy                       0x08008739   Thumb Code    14  handlers.o(i.__scatterload_copy)
    __scatterload_null                       0x08008747   Thumb Code     2  handlers.o(i.__scatterload_null)
    __scatterload_zeroinit                   0x08008749   Thumb Code    14  handlers.o(i.__scatterload_zeroinit)
    __set_errno                              0x08008759   Thumb Code     6  errno.o(i.__set_errno)
    atan                                     0x08008ff7   Thumb Code    16  atan.o(i.atan)
    fabs                                     0x08009007   Thumb Code    24  fabs.o(i.fabs)
    free                                     0x08009021   Thumb Code    76  malloc.o(i.free)
    malloc                                   0x08009071   Thumb Code    92  malloc.o(i.malloc)
    sqrt                                     0x080090dd   Thumb Code   110  sqrt.o(i.sqrt)
    TX_ADDRESS                               0x0800914a   Data           5  nrf24l01.o(.constdata)
    RX_ADDRESS                               0x0800914f   Data           5  nrf24l01.o(.constdata)
    __mathlib_zero                           0x08009240   Data           8  qnan.o(.constdata)
    Region$$Table$$Base                      0x08009248   Number         0  anon$$obj.o(Region$$Table)
    Region$$Table$$Limit                     0x08009268   Number         0  anon$$obj.o(Region$$Table)
    ZGyroAngle                               0x20000000   Data           4  can1bus.o(.data)
    workingState                             0x20000004   Data           1  controller.o(.data)
    lastWorkingState                         0x20000005   Data           1  controller.o(.data)
    chassisPositionXPid                      0x20000008   Data          80  controller.o(.data)
    chassisPositionYPid                      0x20000058   Data          80  controller.o(.data)
    chassisPositionZPid                      0x200000a8   Data          80  controller.o(.data)
    chassisSpeedXPid                         0x200000f8   Data          80  controller.o(.data)
    chassisSpeedYPid                         0x20000148   Data          80  controller.o(.data)
    chassisSpeedZPid                         0x20000198   Data          80  controller.o(.data)
    gimbalsPositionYawPID                    0x200001e8   Data          80  controller.o(.data)
    gimbalsPositionPitchPID                  0x20000238   Data          80  controller.o(.data)
    gimbalsSpeedYawPID                       0x20000288   Data          80  controller.o(.data)
    gimbalsSpeedPitchPID                     0x200002d8   Data          80  controller.o(.data)
    chassisRamp                              0x20000328   Data          48  controller.o(.data)
    gimbalsRamp                              0x20000358   Data          48  controller.o(.data)
    chassisMotorCurrent                      0x20000388   Data           8  controller.o(.data)
    gimbalsMotorCurrent                      0x20000390   Data           4  controller.o(.data)
    inputMode                                0x20000398   Data           1  inputscaner.o(.data)
    lastInputMode                            0x20000399   Data           1  inputscaner.o(.data)
    ctrlMode                                 0x2000039a   Data           1  inputscaner.o(.data)
    lastCtrlMode                             0x2000039b   Data           1  inputscaner.o(.data)
    switchPanel                              0x2000039c   Data           6  inputscaner.o(.data)
    gimbalsPosition                          0x200003a2   Data           8  inputscaner.o(.data)
    gimbalsSpeed                             0x200003aa   Data           8  inputscaner.o(.data)
    gimbalsCurrent                           0x200003b2   Data           8  inputscaner.o(.data)
    mafilter_x                               0x200003bc   Data           4  inputscaner.o(.data)
    mafilter_y                               0x200003c0   Data           4  inputscaner.o(.data)
    mafilter_z                               0x200003c4   Data           4  inputscaner.o(.data)
    dbuf                                     0x200003c8   Data           4  usart1.o(.data)
    usart2_tx_fifo                           0x200003d0   Data           4  usart2.o(.data)
    usart2_rx_data                           0x200003d4   Data           1  usart2.o(.data)
    usart3_tx_fifo                           0x200003d8   Data           4  usart3.o(.data)
    usart3_rx_data                           0x200003dc   Data           1  usart3.o(.data)
    exInt                                    0x200003e0   Data           4  imu.o(.data)
    eyInt                                    0x200003e4   Data           4  imu.o(.data)
    ezInt                                    0x200003e8   Data           4  imu.o(.data)
    q0                                       0x200003ec   Data           4  imu.o(.data)
    q1                                       0x200003f0   Data           4  imu.o(.data)
    q2                                       0x200003f4   Data           4  imu.o(.data)
    q3                                       0x200003f8   Data           4  imu.o(.data)
    lastUpdate                               0x20000420   Data           4  imu.o(.data)
    now                                      0x20000424   Data           4  imu.o(.data)
    yaw_temp                                 0x20000428   Data           4  imu.o(.data)
    pitch_temp                               0x2000042c   Data           4  imu.o(.data)
    roll_temp                                0x20000430   Data           4  imu.o(.data)
    last_yaw_temp                            0x20000434   Data           4  imu.o(.data)
    last_pitch_temp                          0x20000438   Data           4  imu.o(.data)
    last_roll_temp                           0x2000043c   Data           4  imu.o(.data)
    yaw_angle                                0x20000440   Data           4  imu.o(.data)
    pitch_angle                              0x20000444   Data           4  imu.o(.data)
    roll_angle                               0x20000448   Data           4  imu.o(.data)
    MPU6050_Lastax                           0x20000450   Data           2  mpu6050_driver.o(.data)
    MPU6050_Lastay                           0x20000452   Data           2  mpu6050_driver.o(.data)
    MPU6050_Lastaz                           0x20000454   Data           2  mpu6050_driver.o(.data)
    MPU6050_Lastgx                           0x20000456   Data           2  mpu6050_driver.o(.data)
    MPU6050_Lastgy                           0x20000458   Data           2  mpu6050_driver.o(.data)
    MPU6050_Lastgz                           0x2000045a   Data           2  mpu6050_driver.o(.data)
    imu_it_flag                              0x2000045c   Data           1  mpu6050_interrupt.o(.data)
    SystemCoreClock                          0x20000470   Data           4  system_stm32f4xx.o(.data)
    AHBPrescTable                            0x20000474   Data          16  system_stm32f4xx.o(.data)
    __stdout                                 0x20000484   Data           4  stdout.o(.data)
    __microlib_freelist                      0x20000488   Data           4  mvars.o(.data)
    __microlib_freelist_initialised          0x2000048c   Data           4  mvars.o(.data)
    CM1Encoder                               0x20000494   Data          88  can2bus.o(.bss)
    CM2Encoder                               0x200004ec   Data          88  can2bus.o(.bss)
    CM3Encoder                               0x20000544   Data          88  can2bus.o(.bss)
    CM4Encoder                               0x2000059c   Data          88  can2bus.o(.bss)
    GMYEncoder                               0x200005f4   Data          88  can2bus.o(.bss)
    GMPEncoder                               0x2000064c   Data          88  can2bus.o(.bss)
    mecanumPosition                          0x200006a4   Data          28  controller.o(.bss)
    mecanumSpeed                             0x200006c0   Data          28  controller.o(.bss)
    mecanumCurrent                           0x200006dc   Data          28  controller.o(.bss)
    keyboard                                 0x200006f8   Data          24  inputscaner.o(.bss)
    chassisPosition                          0x20000710   Data          12  inputscaner.o(.bss)
    chassisSpeed                             0x2000071c   Data          12  inputscaner.o(.bss)
    chassisCurrent                           0x20000728   Data          12  inputscaner.o(.bss)
    can1RxMsg                                0x20000734   Data          20  can1.o(.bss)
    can2RxMsg                                0x20000748   Data          20  can2.o(.bss)
    usart1_dma_rx_buf                        0x2000075c   Data          72  usart1.o(.bss)
    dbus                                     0x200007a4   Data          22  usart1.o(.bss)
    mygetqval                                0x200007bc   Data          36  imu.o(.bss)
    angle                                    0x200007f0   Data          12  imu.o(.bss)
    MPU6050_Raw_Data                         0x200007fc   Data          14  mpu6050_driver.o(.bss)
    MPU6050_Real_Data                        0x2000080a   Data          28  mpu6050_driver.o(.bss)
    ahrs                                     0x20000826   Data          12  mpu6050_driver.o(.bss)
    mpu_buf                                  0x20000832   Data          20  mpu6050_driver.o(.bss)
    MPU6050_FIFO                             0x20000846   Data         132  mpu6050_driver.o(.bss)
    __heap_base                              0x200008d0   Data           0  startup_stm32f4xx.o(HEAP)
    __heap_limit                             0x20000ad0   Data           0  startup_stm32f4xx.o(HEAP)
    __initial_sp                             0x200014d0   Data           0  startup_stm32f4xx.o(STACK)



==============================================================================

Memory Map of the image

  Image Entry point : 0x08000189

  Load Region LR_IROM1 (Base: 0x08000000, Size: 0x000096fc, Max: 0x00080000, ABSOLUTE, COMPRESSED[0x000092e0])

    Execution Region ER_IROM1 (Base: 0x08000000, Size: 0x00009268, Max: 0x00080000, ABSOLUTE)

    Base Addr    Size         Type   Attr      Idx    E Section Name        Object

    0x08000000   0x00000188   Data   RO         1295    RESET               startup_stm32f4xx.o
    0x08000188   0x00000000   Code   RO         1387  * .ARM.Collect$$$$00000000  mc_w.l(entry.o)
    0x08000188   0x00000004   Code   RO         1734    .ARM.Collect$$$$00000001  mc_w.l(entry2.o)
    0x0800018c   0x00000004   Code   RO         1737    .ARM.Collect$$$$00000004  mc_w.l(entry5.o)
    0x08000190   0x00000000   Code   RO         1739    .ARM.Collect$$$$00000008  mc_w.l(entry7b.o)
    0x08000190   0x00000000   Code   RO         1741    .ARM.Collect$$$$0000000A  mc_w.l(entry8b.o)
    0x08000190   0x00000008   Code   RO         1742    .ARM.Collect$$$$0000000B  mc_w.l(entry9a.o)
    0x08000198   0x00000000   Code   RO         1744    .ARM.Collect$$$$0000000D  mc_w.l(entry10a.o)
    0x08000198   0x00000000   Code   RO         1746    .ARM.Collect$$$$0000000F  mc_w.l(entry11a.o)
    0x08000198   0x00000004   Code   RO         1735    .ARM.Collect$$$$00002712  mc_w.l(entry2.o)
    0x0800019c   0x000001b4   Code   RO           72    .text               fifo.o
    0x08000350   0x0000012c   Code   RO          108    .text               mafilter_f32.o
    0x0800047c   0x000001bc   Code   RO          153    .text               pid.o
    0x08000638   0x00000086   Code   RO          168    .text               ramp.o
    0x080006be   0x00000002   PAD
    0x080006c0   0x00000140   Code   RO          183    .text               mecanum.o
    0x08000800   0x00000050   Code   RO          222    .text               can1bus.o
    0x08000850   0x000000d8   Code   RO          419    .text               can2bus.o
    0x08000928   0x00000534   Code   RO          449    .text               controller.o
    0x08000e5c   0x000009d0   Code   RO          476    .text               inputscaner.o
    0x0800182c   0x00000048   Code   RO          556    .text               bsp.o
    0x08001874   0x0000015c   Code   RO          576    .text               can1.o
    0x080019d0   0x00000150   Code   RO          602    .text               can2.o
    0x08001b20   0x00000148   Code   RO          649    .text               dbus.o
    0x08001c68   0x00000036   Code   RO          663    .text               delay.o
    0x08001c9e   0x00000002   PAD
    0x08001ca0   0x000001b4   Code   RO          683    .text               encoder.o
    0x08001e54   0x0000003c   Code   RO          703    .text               led.o
    0x08001e90   0x000000ae   Code   RO          723    .text               motor.o
    0x08001f3e   0x00000002   PAD
    0x08001f40   0x000001a8   Code   RO          743    .text               pwm.o
    0x080020e8   0x00000114   Code   RO          783    .text               spi1.o
    0x080021fc   0x0000013c   Code   RO          803    .text               timer.o
    0x08002338   0x000001d0   Code   RO          823    .text               usart1.o
    0x08002508   0x00000204   Code   RO          850    .text               usart2.o
    0x0800270c   0x0000018c   Code   RO          876    .text               usart3.o
    0x08002898   0x0000005c   Code   RO          902    .text               zgyro.o
    0x080028f4   0x00000ea0   Code   RO          922    .text               imu.o
    0x08003794   0x000005a0   Code   RO          950    .text               mpu6050_driver.o
    0x08003d34   0x0000039c   Code   RO          981    .text               mpu6050_i2c.o
    0x080040d0   0x00000104   Code   RO         1001    .text               mpu6050_interrupt.o
    0x080041d4   0x000000e0   Code   RO         1027    .text               misc.o
    0x080042b4   0x000009f0   Code   RO         1047    .text               stm32f4xx_can.o
    0x08004ca4   0x000003a8   Code   RO         1067    .text               stm32f4xx_dma.o
    0x0800504c   0x0000011c   Code   RO         1087    .text               stm32f4xx_exti.o
    0x08005168   0x0000025c   Code   RO         1127    .text               stm32f4xx_gpio.o
    0x080053c4   0x00000588   Code   RO         1167    .text               stm32f4xx_rcc.o
    0x0800594c   0x000003f8   Code   RO         1189    .text               stm32f4xx_spi.o
    0x08005d44   0x0000008c   Code   RO         1209    .text               stm32f4xx_syscfg.o
    0x08005dd0   0x00000ca2   Code   RO         1229    .text               stm32f4xx_tim.o
    0x08006a72   0x00000002   PAD
    0x08006a74   0x0000041a   Code   RO         1249    .text               stm32f4xx_usart.o
    0x08006e8e   0x00000002   PAD
    0x08006e90   0x00000210   Code   RO         1269    .text               system_stm32f4xx.o
    0x080070a0   0x00000024   Code   RO         1296    .text               startup_stm32f4xx.o
    0x080070c4   0x00000320   Code   RO         1302    .text               nrf24l01.o
    0x080073e4   0x00000190   Code   RO         1325    .text               main.o
    0x08007574   0x00000024   Code   RO         1392    .text               mc_w.l(memseta.o)
    0x08007598   0x0000000e   Code   RO         1394    .text               mc_w.l(strlen.o)
    0x080075a6   0x000000e4   Code   RO         1687    .text               mf_w.l(dmul.o)
    0x0800768a   0x000000de   Code   RO         1689    .text               mf_w.l(ddiv.o)
    0x08007768   0x00000022   Code   RO         1693    .text               mf_w.l(dflti.o)
    0x0800778a   0x00000026   Code   RO         1695    .text               mf_w.l(f2d.o)
    0x080077b0   0x00000030   Code   RO         1697    .text               mf_w.l(cdrcmple.o)
    0x080077e0   0x00000038   Code   RO         1699    .text               mf_w.l(d2f.o)
    0x08007818   0x0000002c   Code   RO         1749    .text               mc_w.l(uidiv.o)
    0x08007844   0x00000062   Code   RO         1751    .text               mc_w.l(uldiv.o)
    0x080078a6   0x00000000   Code   RO         1762    .text               mc_w.l(iusefp.o)
    0x080078a6   0x0000006e   Code   RO         1763    .text               mf_w.l(fepilogue.o)
    0x08007914   0x000000ba   Code   RO         1765    .text               mf_w.l(depilogue.o)
    0x080079ce   0x0000014e   Code   RO         1767    .text               mf_w.l(dadd.o)
    0x08007b1c   0x000000a2   Code   RO         1769    .text               mf_w.l(dsqrt.o)
    0x08007bbe   0x00000030   Code   RO         1771    .text               mf_w.l(dfixul.o)
    0x08007bee   0x00000002   PAD
    0x08007bf0   0x00000024   Code   RO         1775    .text               mc_w.l(init.o)
    0x08007c14   0x0000001e   Code   RO         1777    .text               mc_w.l(llshl.o)
    0x08007c32   0x00000020   Code   RO         1779    .text               mc_w.l(llushr.o)
    0x08007c52   0x00000024   Code   RO         1781    .text               mc_w.l(llsshr.o)
    0x08007c76   0x00000056   Code   RO         1791    .text               mc_w.l(__dczerorl2.o)
    0x08007ccc   0x00000020   Code   RO         1631    i.__0printf         mc_w.l(printfa.o)
    0x08007cec   0x00000030   Code   RO         1729    i.__ARM_fpclassify  m_wm.l(fpclassify.o)
    0x08007d1c   0x00000004   PAD
    0x08007d20   0x00000360   Code   RO         1343    i.__hardfp_asin     m_wm.l(asin.o)
    0x08008080   0x000002d8   Code   RO         1701    i.__hardfp_atan     m_wm.l(atan.o)
    0x08008358   0x000001f0   Code   RO         1357    i.__hardfp_atan2    m_wm.l(atan2.o)
    0x08008548   0x00000014   Code   RO         1369    i.__hardfp_fabs     m_wm.l(fabs.o)
    0x0800855c   0x0000007a   Code   RO         1375    i.__hardfp_sqrt     m_wm.l(sqrt.o)
    0x080085d6   0x000000f8   Code   RO         1731    i.__kernel_poly     m_wm.l(poly.o)
    0x080086ce   0x00000014   Code   RO         1716    i.__mathlib_dbl_infnan  m_wm.l(dunder.o)
    0x080086e2   0x00000014   Code   RO         1717    i.__mathlib_dbl_infnan2  m_wm.l(dunder.o)
    0x080086f6   0x00000002   PAD
    0x080086f8   0x00000020   Code   RO         1718    i.__mathlib_dbl_invalid  m_wm.l(dunder.o)
    0x08008718   0x00000020   Code   RO         1721    i.__mathlib_dbl_underflow  m_wm.l(dunder.o)
    0x08008738   0x0000000e   Code   RO         1785    i.__scatterload_copy  mc_w.l(handlers.o)
    0x08008746   0x00000002   Code   RO         1786    i.__scatterload_null  mc_w.l(handlers.o)
    0x08008748   0x0000000e   Code   RO         1787    i.__scatterload_zeroinit  mc_w.l(handlers.o)
    0x08008756   0x00000002   PAD
    0x08008758   0x0000000c   Code   RO         1757    i.__set_errno       mc_w.l(errno.o)
    0x08008764   0x00000164   Code   RO         1638    i._fp_digits        mc_w.l(printfa.o)
    0x080088c8   0x000006dc   Code   RO         1639    i._printf_core      mc_w.l(printfa.o)
    0x08008fa4   0x00000024   Code   RO         1640    i._printf_post_padding  mc_w.l(printfa.o)
    0x08008fc8   0x0000002e   Code   RO         1641    i._printf_pre_padding  mc_w.l(printfa.o)
    0x08008ff6   0x00000010   Code   RO         1703    i.atan              m_wm.l(atan.o)
    0x08009006   0x00000018   Code   RO         1371    i.fabs              m_wm.l(fabs.o)
    0x0800901e   0x00000002   PAD
    0x08009020   0x00000050   Code   RO         1659    i.free              mc_w.l(malloc.o)
    0x08009070   0x0000006c   Code   RO         1660    i.malloc            mc_w.l(malloc.o)
    0x080090dc   0x0000006e   Code   RO         1377    i.sqrt              m_wm.l(sqrt.o)
    0x0800914a   0x0000000a   Data   RO         1303    .constdata          nrf24l01.o
    0x08009154   0x00000004   PAD
    0x08009158   0x00000050   Data   RO         1346    .constdata          m_wm.l(asin.o)
    0x080091a8   0x00000098   Data   RO         1704    .constdata          m_wm.l(atan.o)
    0x08009240   0x00000008   Data   RO         1733    .constdata          m_wm.l(qnan.o)
    0x08009248   0x00000020   Data   RO         1783    Region$$Table       anon$$obj.o


    Execution Region RW_IRAM1 (Base: 0x20000000, Size: 0x000014d0, Max: 0x00020000, ABSOLUTE, COMPRESSED[0x00000078])

    Base Addr    Size         Type   Attr      Idx    E Section Name        Object

    0x20000000   0x00000004   Data   RW          223    .data               can1bus.o
    0x20000004   0x00000394   Data   RW          451    .data               controller.o
    0x20000398   0x00000030   Data   RW          478    .data               inputscaner.o
    0x200003c8   0x00000008   Data   RW          825    .data               usart1.o
    0x200003d0   0x00000005   Data   RW          851    .data               usart2.o
    0x200003d5   0x00000003   PAD
    0x200003d8   0x00000005   Data   RW          877    .data               usart3.o
    0x200003dd   0x00000003   PAD
    0x200003e0   0x00000070   Data   RW          924    .data               imu.o
    0x20000450   0x0000000c   Data   RW          952    .data               mpu6050_driver.o
    0x2000045c   0x00000001   Data   RW         1002    .data               mpu6050_interrupt.o
    0x2000045d   0x00000010   Data   RW         1168    .data               stm32f4xx_rcc.o
    0x2000046d   0x00000003   PAD
    0x20000470   0x00000014   Data   RW         1270    .data               system_stm32f4xx.o
    0x20000484   0x00000004   Data   RW         1748    .data               mc_w.l(stdout.o)
    0x20000488   0x00000004   Data   RW         1753    .data               mc_w.l(mvars.o)
    0x2000048c   0x00000004   Data   RW         1754    .data               mc_w.l(mvars.o)
    0x20000490   0x00000004   Data   RW         1758    .data               mc_w.l(errno.o)
    0x20000494   0x00000210   Zero   RW          420    .bss                can2bus.o
    0x200006a4   0x00000054   Zero   RW          450    .bss                controller.o
    0x200006f8   0x0000003c   Zero   RW          477    .bss                inputscaner.o
    0x20000734   0x00000014   Zero   RW          577    .bss                can1.o
    0x20000748   0x00000014   Zero   RW          603    .bss                can2.o
    0x2000075c   0x0000005e   Zero   RW          824    .bss                usart1.o
    0x200007ba   0x00000002   PAD
    0x200007bc   0x00000040   Zero   RW          923    .bss                imu.o
    0x200007fc   0x000000ce   Zero   RW          951    .bss                mpu6050_driver.o
    0x200008ca   0x00000006   PAD
    0x200008d0   0x00000200   Zero   RW         1294    HEAP                startup_stm32f4xx.o
    0x20000ad0   0x00000a00   Zero   RW         1293    STACK               startup_stm32f4xx.o


==============================================================================

Image component sizes


      Code (inc. data)   RO Data    RW Data    ZI Data      Debug   Object Name

        72          6          0          0          0        497   bsp.o
       348         18          0          0         20       1193   can1.o
        80         12          0          4          0     288951   can1bus.o
       336         14          0          0         20       1189   can2.o
       216         38          0          0        528        918   can2bus.o
      1332        150          0        916         84       4785   controller.o
         0          0          0          0          0       4500   crc8.o
       328          0          0          0          0       1800   dbus.o
        54          0          0          0          0        784   delay.o
       436         22          0          0          0       1593   encoder.o
       436          0          0          0          0       4960   fifo.o
      3744        302          0        112         64       4661   imu.o
      2512        164          0         48         60       7103   inputscaner.o
        60          6          0          0          0        485   led.o
       300          4          0          0          0       2433   mafilter_f32.o
       400         98          0          0          0        945   main.o
       320          8          0          0          0       1354   mecanum.o
       224         20          0          0          0       1773   misc.o
       174          0          0          0          0       1372   motor.o
      1440        228          0         12        206       6821   mpu6050_driver.o
       924         92          0          0          0       3800   mpu6050_i2c.o
       260         10          0          1          0       1080   mpu6050_interrupt.o
       800         24         10          0          0       3665   nrf24l01.o
       444          4          0          0          0       2073   pid.o
       424         16          0          0          0        729   pwm.o
       134          0          0          0          0       3122   ramp.o
       276          8          0          0          0        967   spi1.o
        36          8        392          0       3072        812   startup_stm32f4xx.o
      2544         38          0          0          0       8096   stm32f4xx_can.o
       936         32          0          0          0       6349   stm32f4xx_dma.o
       284         10          0          0          0       2275   stm32f4xx_exti.o
       604         36          0          0          0       4081   stm32f4xx_gpio.o
      1416         48          0         16          0      10987   stm32f4xx_rcc.o
      1016         22          0          0          0       6797   stm32f4xx_spi.o
       140         12          0          0          0       1663   stm32f4xx_syscfg.o
      3234         60          0          0          0      22968   stm32f4xx_tim.o
      1050         26          0          0          0       7816   stm32f4xx_usart.o
       528         46          0         20          0       1787   system_stm32f4xx.o
       316          6          0          0          0       1655   timer.o
       464         32          0          8         94       1484   usart1.o
       516         24          0          5          0       2218   usart2.o
       396         16          0          5          0       1980   usart3.o
        92          6          0          0          0        548   zgyro.o

    ----------------------------------------------------------------------
     29656       1666        438       1156       4156     435069   Object Totals
         0          0         32          0          0          0   (incl. Generated)
        10          0          4          9          8          0   (incl. Padding)

    ----------------------------------------------------------------------

      Code (inc. data)   RO Data    RW Data    ZI Data      Debug   Library Member Name

       864         94         80          0          0        280   asin.o
       744        106        152          0          0        352   atan.o
       496         64          0          0          0        192   atan2.o
       104         16          0          0          0        496   dunder.o
        44          0          0          0          0        248   fabs.o
        48          0          0          0          0        124   fpclassify.o
       248          0          0          0          0        152   poly.o
         0          0          8          0          0          0   qnan.o
       232          0          0          0          0        296   sqrt.o
        86          0          0          0          0          0   __dczerorl2.o
         0          0          0          0          0          0   entry.o
         0          0          0          0          0          0   entry10a.o
         0          0          0          0          0          0   entry11a.o
         8          4          0          0          0          0   entry2.o
         4          0          0          0          0          0   entry5.o
         0          0          0          0          0          0   entry7b.o
         0          0          0          0          0          0   entry8b.o
         8          4          0          0          0          0   entry9a.o
        12          6          0          4          0         68   errno.o
        30          0          0          0          0          0   handlers.o
        36          8          0          0          0         68   init.o
         0          0          0          0          0          0   iusefp.o
        30          0          0          0          0         68   llshl.o
        36          0          0          0          0         68   llsshr.o
        32          0          0          0          0         68   llushr.o
       188         20          0          0          0        160   malloc.o
        36          0          0          0          0        108   memseta.o
         0          0          0          8          0          0   mvars.o
      2226         90          0          0          0        444   printfa.o
         0          0          0          4          0          0   stdout.o
        14          0          0          0          0         68   strlen.o
        44          0          0          0          0         80   uidiv.o
        98          0          0          0          0         92   uldiv.o
        48          0          0          0          0         68   cdrcmple.o
        56          0          0          0          0         88   d2f.o
       334          0          0          0          0        148   dadd.o
       222          0          0          0          0        100   ddiv.o
       186          0          0          0          0        176   depilogue.o
        48          0          0          0          0         68   dfixul.o
        34          0          0          0          0         76   dflti.o
       228          0          0          0          0         96   dmul.o
       162          0          0          0          0        100   dsqrt.o
        38          0          0          0          0         68   f2d.o
       110          0          0          0          0        168   fepilogue.o

    ----------------------------------------------------------------------
      7146        412        240         16          0       4588   Library Totals
        12          0          0          0          0          0   (incl. Padding)

    ----------------------------------------------------------------------

      Code (inc. data)   RO Data    RW Data    ZI Data      Debug   Library Name

      2780        280        240          0          0       2140   m_wm.l
      2888        132          0         16          0       1292   mc_w.l
      1466          0          0          0          0       1156   mf_w.l

    ----------------------------------------------------------------------
      7146        412        240         16          0       4588   Library Totals

    ----------------------------------------------------------------------

==============================================================================


      Code (inc. data)   RO Data    RW Data    ZI Data      Debug   

     36802       2078        678       1172       4156     429893   Grand Totals
     36802       2078        678        120       4156     429893   ELF Image Totals (compressed)
     36802       2078        678        120          0          0   ROM Totals

==============================================================================

    Total RO  Size (Code + RO Data)                37480 (  36.60kB)
    Total RW  Size (RW Data + ZI Data)              5328 (   5.20kB)
    Total ROM Size (Code + RO Data + RW Data)      37600 (  36.72kB)

==============================================================================

